{
	"contracts/11_maths.sol": {
		"math": {
			"abi": [
				{
					"inputs": [
						{
							"internalType": "uint256",
							"name": "x",
							"type": "uint256"
						},
						{
							"internalType": "uint256",
							"name": "y",
							"type": "uint256"
						},
						{
							"internalType": "uint256",
							"name": "k",
							"type": "uint256"
						}
					],
					"name": "_addmod",
					"outputs": [
						{
							"internalType": "uint256",
							"name": "",
							"type": "uint256"
						},
						{
							"internalType": "uint256",
							"name": "",
							"type": "uint256"
						}
					],
					"stateMutability": "pure",
					"type": "function"
				},
				{
					"inputs": [
						{
							"internalType": "uint256",
							"name": "x",
							"type": "uint256"
						},
						{
							"internalType": "uint256",
							"name": "y",
							"type": "uint256"
						},
						{
							"internalType": "uint256",
							"name": "k",
							"type": "uint256"
						}
					],
					"name": "_mulmod",
					"outputs": [
						{
							"internalType": "uint256",
							"name": "",
							"type": "uint256"
						},
						{
							"internalType": "uint256",
							"name": "",
							"type": "uint256"
						}
					],
					"stateMutability": "pure",
					"type": "function"
				},
				{
					"inputs": [
						{
							"internalType": "uint256",
							"name": "a",
							"type": "uint256"
						},
						{
							"internalType": "uint256",
							"name": "b",
							"type": "uint256"
						}
					],
					"name": "producto",
					"outputs": [
						{
							"internalType": "uint256",
							"name": "",
							"type": "uint256"
						}
					],
					"stateMutability": "pure",
					"type": "function"
				},
				{
					"inputs": [
						{
							"internalType": "uint256",
							"name": "a",
							"type": "uint256"
						},
						{
							"internalType": "uint256",
							"name": "b",
							"type": "uint256"
						}
					],
					"name": "suma",
					"outputs": [
						{
							"internalType": "uint256",
							"name": "_suma",
							"type": "uint256"
						}
					],
					"stateMutability": "pure",
					"type": "function"
				}
			],
			"devdoc": {
				"kind": "dev",
				"methods": {},
				"version": 1
			},
			"evm": {
				"assembly": "    /* \"contracts/11_maths.sol\":60:540  contract math {\r... */\n  mstore(0x40, 0x80)\n  callvalue\n  dup1\n  iszero\n  tag_1\n  jumpi\n  0x00\n  dup1\n  revert\ntag_1:\n  pop\n  dataSize(sub_0)\n  dup1\n  dataOffset(sub_0)\n  0x00\n  codecopy\n  0x00\n  return\nstop\n\nsub_0: assembly {\n        /* \"contracts/11_maths.sol\":60:540  contract math {\r... */\n      mstore(0x40, 0x80)\n      callvalue\n      dup1\n      iszero\n      tag_1\n      jumpi\n      0x00\n      dup1\n      revert\n    tag_1:\n      pop\n      jumpi(tag_2, lt(calldatasize, 0x04))\n      shr(0xe0, calldataload(0x00))\n      dup1\n      0x04f4ceaa\n      eq\n      tag_3\n      jumpi\n      dup1\n      0x871f9af4\n      eq\n      tag_4\n      jumpi\n      dup1\n      0xb1b45b1b\n      eq\n      tag_5\n      jumpi\n      dup1\n      0xdd125e37\n      eq\n      tag_6\n      jumpi\n    tag_2:\n      0x00\n      dup1\n      revert\n        /* \"contracts/11_maths.sol\":183:273  function producto(uint a, uint b) public pure returns (uint) {\r... */\n    tag_3:\n      tag_7\n      0x04\n      dup1\n      calldatasize\n      sub\n      dup2\n      add\n      swap1\n      tag_8\n      swap2\n      swap1\n      tag_9\n      jump\t// in\n    tag_8:\n      tag_10\n      jump\t// in\n    tag_7:\n      mload(0x40)\n      tag_11\n      swap2\n      swap1\n      tag_12\n      jump\t// in\n    tag_11:\n      mload(0x40)\n      dup1\n      swap2\n      sub\n      swap1\n      return\n        /* \"contracts/11_maths.sol\":413:537  function _mulmod(uint x, uint y, uint k) public pure returns (uint, uint) {\r... */\n    tag_4:\n      tag_13\n      0x04\n      dup1\n      calldatasize\n      sub\n      dup2\n      add\n      swap1\n      tag_14\n      swap2\n      swap1\n      tag_15\n      jump\t// in\n    tag_14:\n      tag_16\n      jump\t// in\n    tag_13:\n      mload(0x40)\n      tag_17\n      swap3\n      swap2\n      swap1\n      tag_18\n      jump\t// in\n    tag_17:\n      mload(0x40)\n      dup1\n      swap2\n      sub\n      swap1\n      return\n        /* \"contracts/11_maths.sol\":83:175  function suma(uint a, uint b) public pure returns (uint _suma) {\r... */\n    tag_5:\n      tag_19\n      0x04\n      dup1\n      calldatasize\n      sub\n      dup2\n      add\n      swap1\n      tag_20\n      swap2\n      swap1\n      tag_9\n      jump\t// in\n    tag_20:\n      tag_21\n      jump\t// in\n    tag_19:\n      mload(0x40)\n      tag_22\n      swap2\n      swap1\n      tag_12\n      jump\t// in\n    tag_22:\n      mload(0x40)\n      dup1\n      swap2\n      sub\n      swap1\n      return\n        /* \"contracts/11_maths.sol\":281:405  function _addmod(uint x, uint y, uint k) public pure returns (uint, uint) {\r... */\n    tag_6:\n      tag_23\n      0x04\n      dup1\n      calldatasize\n      sub\n      dup2\n      add\n      swap1\n      tag_24\n      swap2\n      swap1\n      tag_15\n      jump\t// in\n    tag_24:\n      tag_25\n      jump\t// in\n    tag_23:\n      mload(0x40)\n      tag_26\n      swap3\n      swap2\n      swap1\n      tag_18\n      jump\t// in\n    tag_26:\n      mload(0x40)\n      dup1\n      swap2\n      sub\n      swap1\n      return\n        /* \"contracts/11_maths.sol\":183:273  function producto(uint a, uint b) public pure returns (uint) {\r... */\n    tag_10:\n        /* \"contracts/11_maths.sol\":238:242  uint */\n      0x00\n        /* \"contracts/11_maths.sol\":264:265  b */\n      dup2\n        /* \"contracts/11_maths.sol\":262:263  a */\n      dup4\n        /* \"contracts/11_maths.sol\":262:265  a*b */\n      tag_28\n      swap2\n      swap1\n      tag_29\n      jump\t// in\n    tag_28:\n        /* \"contracts/11_maths.sol\":255:265  return a*b */\n      swap1\n      pop\n        /* \"contracts/11_maths.sol\":183:273  function producto(uint a, uint b) public pure returns (uint) {\r... */\n      swap3\n      swap2\n      pop\n      pop\n      jump\t// out\n        /* \"contracts/11_maths.sol\":413:537  function _mulmod(uint x, uint y, uint k) public pure returns (uint, uint) {\r... */\n    tag_16:\n        /* \"contracts/11_maths.sol\":475:479  uint */\n      0x00\n        /* \"contracts/11_maths.sol\":481:485  uint */\n      dup1\n        /* \"contracts/11_maths.sol\":517:518  k */\n      dup3\n        /* \"contracts/11_maths.sol\":506:519  mulmod(x,y,k) */\n      dup1\n      tag_31\n      jumpi\n      mstore(0x00, 0x4e487b7100000000000000000000000000000000000000000000000000000000)\n      mstore(0x04, 0x12)\n      revert(0x00, 0x24)\n    tag_31:\n        /* \"contracts/11_maths.sol\":515:516  y */\n      dup5\n        /* \"contracts/11_maths.sol\":513:514  x */\n      dup7\n        /* \"contracts/11_maths.sol\":506:519  mulmod(x,y,k) */\n      mulmod\n        /* \"contracts/11_maths.sol\":527:528  k */\n      dup4\n        /* \"contracts/11_maths.sol\":524:525  y */\n      dup6\n        /* \"contracts/11_maths.sol\":522:523  x */\n      dup8\n        /* \"contracts/11_maths.sol\":522:525  x*y */\n      tag_32\n      swap2\n      swap1\n      tag_29\n      jump\t// in\n    tag_32:\n        /* \"contracts/11_maths.sol\":521:528  (x*y)%k */\n      tag_33\n      swap2\n      swap1\n      tag_34\n      jump\t// in\n    tag_33:\n        /* \"contracts/11_maths.sol\":498:529  return (mulmod(x,y,k), (x*y)%k) */\n      swap2\n      pop\n      swap2\n      pop\n        /* \"contracts/11_maths.sol\":413:537  function _mulmod(uint x, uint y, uint k) public pure returns (uint, uint) {\r... */\n      swap4\n      pop\n      swap4\n      swap2\n      pop\n      pop\n      jump\t// out\n        /* \"contracts/11_maths.sol\":83:175  function suma(uint a, uint b) public pure returns (uint _suma) {\r... */\n    tag_21:\n        /* \"contracts/11_maths.sol\":134:144  uint _suma */\n      0x00\n        /* \"contracts/11_maths.sol\":166:167  b */\n      dup2\n        /* \"contracts/11_maths.sol\":164:165  a */\n      dup4\n        /* \"contracts/11_maths.sol\":164:167  a+b */\n      tag_36\n      swap2\n      swap1\n      tag_37\n      jump\t// in\n    tag_36:\n        /* \"contracts/11_maths.sol\":157:167  return a+b */\n      swap1\n      pop\n        /* \"contracts/11_maths.sol\":83:175  function suma(uint a, uint b) public pure returns (uint _suma) {\r... */\n      swap3\n      swap2\n      pop\n      pop\n      jump\t// out\n        /* \"contracts/11_maths.sol\":281:405  function _addmod(uint x, uint y, uint k) public pure returns (uint, uint) {\r... */\n    tag_25:\n        /* \"contracts/11_maths.sol\":343:347  uint */\n      0x00\n        /* \"contracts/11_maths.sol\":349:353  uint */\n      dup1\n        /* \"contracts/11_maths.sol\":385:386  k */\n      dup3\n        /* \"contracts/11_maths.sol\":374:387  addmod(x,y,k) */\n      dup1\n      tag_39\n      jumpi\n      mstore(0x00, 0x4e487b7100000000000000000000000000000000000000000000000000000000)\n      mstore(0x04, 0x12)\n      revert(0x00, 0x24)\n    tag_39:\n        /* \"contracts/11_maths.sol\":383:384  y */\n      dup5\n        /* \"contracts/11_maths.sol\":381:382  x */\n      dup7\n        /* \"contracts/11_maths.sol\":374:387  addmod(x,y,k) */\n      addmod\n        /* \"contracts/11_maths.sol\":395:396  k */\n      dup4\n        /* \"contracts/11_maths.sol\":392:393  y */\n      dup6\n        /* \"contracts/11_maths.sol\":390:391  x */\n      dup8\n        /* \"contracts/11_maths.sol\":390:393  x+y */\n      tag_40\n      swap2\n      swap1\n      tag_37\n      jump\t// in\n    tag_40:\n        /* \"contracts/11_maths.sol\":389:396  (x+y)%k */\n      tag_41\n      swap2\n      swap1\n      tag_34\n      jump\t// in\n    tag_41:\n        /* \"contracts/11_maths.sol\":366:397  return (addmod(x,y,k), (x+y)%k) */\n      swap2\n      pop\n      swap2\n      pop\n        /* \"contracts/11_maths.sol\":281:405  function _addmod(uint x, uint y, uint k) public pure returns (uint, uint) {\r... */\n      swap4\n      pop\n      swap4\n      swap2\n      pop\n      pop\n      jump\t// out\n        /* \"#utility.yul\":7:146   */\n    tag_43:\n        /* \"#utility.yul\":53:58   */\n      0x00\n        /* \"#utility.yul\":91:97   */\n      dup2\n        /* \"#utility.yul\":78:98   */\n      calldataload\n        /* \"#utility.yul\":69:98   */\n      swap1\n      pop\n        /* \"#utility.yul\":107:140   */\n      tag_45\n        /* \"#utility.yul\":134:139   */\n      dup2\n        /* \"#utility.yul\":107:140   */\n      tag_46\n      jump\t// in\n    tag_45:\n        /* \"#utility.yul\":59:146   */\n      swap3\n      swap2\n      pop\n      pop\n      jump\t// out\n        /* \"#utility.yul\":152:559   */\n    tag_9:\n        /* \"#utility.yul\":220:226   */\n      0x00\n        /* \"#utility.yul\":228:234   */\n      dup1\n        /* \"#utility.yul\":277:279   */\n      0x40\n        /* \"#utility.yul\":265:274   */\n      dup4\n        /* \"#utility.yul\":256:263   */\n      dup6\n        /* \"#utility.yul\":252:275   */\n      sub\n        /* \"#utility.yul\":248:280   */\n      slt\n        /* \"#utility.yul\":245:247   */\n      iszero\n      tag_48\n      jumpi\n        /* \"#utility.yul\":293:294   */\n      0x00\n        /* \"#utility.yul\":290:291   */\n      dup1\n        /* \"#utility.yul\":283:295   */\n      revert\n        /* \"#utility.yul\":245:247   */\n    tag_48:\n        /* \"#utility.yul\":336:337   */\n      0x00\n        /* \"#utility.yul\":361:414   */\n      tag_49\n        /* \"#utility.yul\":406:413   */\n      dup6\n        /* \"#utility.yul\":397:403   */\n      dup3\n        /* \"#utility.yul\":386:395   */\n      dup7\n        /* \"#utility.yul\":382:404   */\n      add\n        /* \"#utility.yul\":361:414   */\n      tag_43\n      jump\t// in\n    tag_49:\n        /* \"#utility.yul\":351:414   */\n      swap3\n      pop\n        /* \"#utility.yul\":307:424   */\n      pop\n        /* \"#utility.yul\":463:465   */\n      0x20\n        /* \"#utility.yul\":489:542   */\n      tag_50\n        /* \"#utility.yul\":534:541   */\n      dup6\n        /* \"#utility.yul\":525:531   */\n      dup3\n        /* \"#utility.yul\":514:523   */\n      dup7\n        /* \"#utility.yul\":510:532   */\n      add\n        /* \"#utility.yul\":489:542   */\n      tag_43\n      jump\t// in\n    tag_50:\n        /* \"#utility.yul\":479:542   */\n      swap2\n      pop\n        /* \"#utility.yul\":434:552   */\n      pop\n        /* \"#utility.yul\":235:559   */\n      swap3\n      pop\n      swap3\n      swap1\n      pop\n      jump\t// out\n        /* \"#utility.yul\":565:1117   */\n    tag_15:\n        /* \"#utility.yul\":642:648   */\n      0x00\n        /* \"#utility.yul\":650:656   */\n      dup1\n        /* \"#utility.yul\":658:664   */\n      0x00\n        /* \"#utility.yul\":707:709   */\n      0x60\n        /* \"#utility.yul\":695:704   */\n      dup5\n        /* \"#utility.yul\":686:693   */\n      dup7\n        /* \"#utility.yul\":682:705   */\n      sub\n        /* \"#utility.yul\":678:710   */\n      slt\n        /* \"#utility.yul\":675:677   */\n      iszero\n      tag_52\n      jumpi\n        /* \"#utility.yul\":723:724   */\n      0x00\n        /* \"#utility.yul\":720:721   */\n      dup1\n        /* \"#utility.yul\":713:725   */\n      revert\n        /* \"#utility.yul\":675:677   */\n    tag_52:\n        /* \"#utility.yul\":766:767   */\n      0x00\n        /* \"#utility.yul\":791:844   */\n      tag_53\n        /* \"#utility.yul\":836:843   */\n      dup7\n        /* \"#utility.yul\":827:833   */\n      dup3\n        /* \"#utility.yul\":816:825   */\n      dup8\n        /* \"#utility.yul\":812:834   */\n      add\n        /* \"#utility.yul\":791:844   */\n      tag_43\n      jump\t// in\n    tag_53:\n        /* \"#utility.yul\":781:844   */\n      swap4\n      pop\n        /* \"#utility.yul\":737:854   */\n      pop\n        /* \"#utility.yul\":893:895   */\n      0x20\n        /* \"#utility.yul\":919:972   */\n      tag_54\n        /* \"#utility.yul\":964:971   */\n      dup7\n        /* \"#utility.yul\":955:961   */\n      dup3\n        /* \"#utility.yul\":944:953   */\n      dup8\n        /* \"#utility.yul\":940:962   */\n      add\n        /* \"#utility.yul\":919:972   */\n      tag_43\n      jump\t// in\n    tag_54:\n        /* \"#utility.yul\":909:972   */\n      swap3\n      pop\n        /* \"#utility.yul\":864:982   */\n      pop\n        /* \"#utility.yul\":1021:1023   */\n      0x40\n        /* \"#utility.yul\":1047:1100   */\n      tag_55\n        /* \"#utility.yul\":1092:1099   */\n      dup7\n        /* \"#utility.yul\":1083:1089   */\n      dup3\n        /* \"#utility.yul\":1072:1081   */\n      dup8\n        /* \"#utility.yul\":1068:1090   */\n      add\n        /* \"#utility.yul\":1047:1100   */\n      tag_43\n      jump\t// in\n    tag_55:\n        /* \"#utility.yul\":1037:1100   */\n      swap2\n      pop\n        /* \"#utility.yul\":992:1110   */\n      pop\n        /* \"#utility.yul\":665:1117   */\n      swap3\n      pop\n      swap3\n      pop\n      swap3\n      jump\t// out\n        /* \"#utility.yul\":1123:1241   */\n    tag_56:\n        /* \"#utility.yul\":1210:1234   */\n      tag_58\n        /* \"#utility.yul\":1228:1233   */\n      dup2\n        /* \"#utility.yul\":1210:1234   */\n      tag_59\n      jump\t// in\n    tag_58:\n        /* \"#utility.yul\":1205:1208   */\n      dup3\n        /* \"#utility.yul\":1198:1235   */\n      mstore\n        /* \"#utility.yul\":1188:1241   */\n      pop\n      pop\n      jump\t// out\n        /* \"#utility.yul\":1247:1469   */\n    tag_12:\n        /* \"#utility.yul\":1340:1344   */\n      0x00\n        /* \"#utility.yul\":1378:1380   */\n      0x20\n        /* \"#utility.yul\":1367:1376   */\n      dup3\n        /* \"#utility.yul\":1363:1381   */\n      add\n        /* \"#utility.yul\":1355:1381   */\n      swap1\n      pop\n        /* \"#utility.yul\":1391:1462   */\n      tag_61\n        /* \"#utility.yul\":1459:1460   */\n      0x00\n        /* \"#utility.yul\":1448:1457   */\n      dup4\n        /* \"#utility.yul\":1444:1461   */\n      add\n        /* \"#utility.yul\":1435:1441   */\n      dup5\n        /* \"#utility.yul\":1391:1462   */\n      tag_56\n      jump\t// in\n    tag_61:\n        /* \"#utility.yul\":1345:1469   */\n      swap3\n      swap2\n      pop\n      pop\n      jump\t// out\n        /* \"#utility.yul\":1475:1807   */\n    tag_18:\n        /* \"#utility.yul\":1596:1600   */\n      0x00\n        /* \"#utility.yul\":1634:1636   */\n      0x40\n        /* \"#utility.yul\":1623:1632   */\n      dup3\n        /* \"#utility.yul\":1619:1637   */\n      add\n        /* \"#utility.yul\":1611:1637   */\n      swap1\n      pop\n        /* \"#utility.yul\":1647:1718   */\n      tag_63\n        /* \"#utility.yul\":1715:1716   */\n      0x00\n        /* \"#utility.yul\":1704:1713   */\n      dup4\n        /* \"#utility.yul\":1700:1717   */\n      add\n        /* \"#utility.yul\":1691:1697   */\n      dup6\n        /* \"#utility.yul\":1647:1718   */\n      tag_56\n      jump\t// in\n    tag_63:\n        /* \"#utility.yul\":1728:1800   */\n      tag_64\n        /* \"#utility.yul\":1796:1798   */\n      0x20\n        /* \"#utility.yul\":1785:1794   */\n      dup4\n        /* \"#utility.yul\":1781:1799   */\n      add\n        /* \"#utility.yul\":1772:1778   */\n      dup5\n        /* \"#utility.yul\":1728:1800   */\n      tag_56\n      jump\t// in\n    tag_64:\n        /* \"#utility.yul\":1601:1807   */\n      swap4\n      swap3\n      pop\n      pop\n      pop\n      jump\t// out\n        /* \"#utility.yul\":1813:2118   */\n    tag_37:\n        /* \"#utility.yul\":1853:1856   */\n      0x00\n        /* \"#utility.yul\":1872:1892   */\n      tag_66\n        /* \"#utility.yul\":1890:1891   */\n      dup3\n        /* \"#utility.yul\":1872:1892   */\n      tag_59\n      jump\t// in\n    tag_66:\n        /* \"#utility.yul\":1867:1892   */\n      swap2\n      pop\n        /* \"#utility.yul\":1906:1926   */\n      tag_67\n        /* \"#utility.yul\":1924:1925   */\n      dup4\n        /* \"#utility.yul\":1906:1926   */\n      tag_59\n      jump\t// in\n    tag_67:\n        /* \"#utility.yul\":1901:1926   */\n      swap3\n      pop\n        /* \"#utility.yul\":2060:2061   */\n      dup3\n        /* \"#utility.yul\":1992:2058   */\n      0xffffffffffffffffffffffffffffffffffffffffffffffffffffffffffffffff\n        /* \"#utility.yul\":1988:2062   */\n      sub\n        /* \"#utility.yul\":1985:1986   */\n      dup3\n        /* \"#utility.yul\":1982:2063   */\n      gt\n        /* \"#utility.yul\":1979:1981   */\n      iszero\n      tag_68\n      jumpi\n        /* \"#utility.yul\":2066:2084   */\n      tag_69\n      tag_70\n      jump\t// in\n    tag_69:\n        /* \"#utility.yul\":1979:1981   */\n    tag_68:\n        /* \"#utility.yul\":2110:2111   */\n      dup3\n        /* \"#utility.yul\":2107:2108   */\n      dup3\n        /* \"#utility.yul\":2103:2112   */\n      add\n        /* \"#utility.yul\":2096:2112   */\n      swap1\n      pop\n        /* \"#utility.yul\":1857:2118   */\n      swap3\n      swap2\n      pop\n      pop\n      jump\t// out\n        /* \"#utility.yul\":2124:2472   */\n    tag_29:\n        /* \"#utility.yul\":2164:2171   */\n      0x00\n        /* \"#utility.yul\":2187:2207   */\n      tag_72\n        /* \"#utility.yul\":2205:2206   */\n      dup3\n        /* \"#utility.yul\":2187:2207   */\n      tag_59\n      jump\t// in\n    tag_72:\n        /* \"#utility.yul\":2182:2207   */\n      swap2\n      pop\n        /* \"#utility.yul\":2221:2241   */\n      tag_73\n        /* \"#utility.yul\":2239:2240   */\n      dup4\n        /* \"#utility.yul\":2221:2241   */\n      tag_59\n      jump\t// in\n    tag_73:\n        /* \"#utility.yul\":2216:2241   */\n      swap3\n      pop\n        /* \"#utility.yul\":2409:2410   */\n      dup2\n        /* \"#utility.yul\":2341:2407   */\n      0xffffffffffffffffffffffffffffffffffffffffffffffffffffffffffffffff\n        /* \"#utility.yul\":2337:2411   */\n      div\n        /* \"#utility.yul\":2334:2335   */\n      dup4\n        /* \"#utility.yul\":2331:2412   */\n      gt\n        /* \"#utility.yul\":2326:2327   */\n      dup3\n        /* \"#utility.yul\":2319:2328   */\n      iszero\n        /* \"#utility.yul\":2312:2329   */\n      iszero\n        /* \"#utility.yul\":2308:2413   */\n      and\n        /* \"#utility.yul\":2305:2307   */\n      iszero\n      tag_74\n      jumpi\n        /* \"#utility.yul\":2416:2434   */\n      tag_75\n      tag_70\n      jump\t// in\n    tag_75:\n        /* \"#utility.yul\":2305:2307   */\n    tag_74:\n        /* \"#utility.yul\":2464:2465   */\n      dup3\n        /* \"#utility.yul\":2461:2462   */\n      dup3\n        /* \"#utility.yul\":2457:2466   */\n      mul\n        /* \"#utility.yul\":2446:2466   */\n      swap1\n      pop\n        /* \"#utility.yul\":2172:2472   */\n      swap3\n      swap2\n      pop\n      pop\n      jump\t// out\n        /* \"#utility.yul\":2478:2555   */\n    tag_59:\n        /* \"#utility.yul\":2515:2522   */\n      0x00\n        /* \"#utility.yul\":2544:2549   */\n      dup2\n        /* \"#utility.yul\":2533:2549   */\n      swap1\n      pop\n        /* \"#utility.yul\":2523:2555   */\n      swap2\n      swap1\n      pop\n      jump\t// out\n        /* \"#utility.yul\":2561:2737   */\n    tag_34:\n        /* \"#utility.yul\":2593:2594   */\n      0x00\n        /* \"#utility.yul\":2610:2630   */\n      tag_78\n        /* \"#utility.yul\":2628:2629   */\n      dup3\n        /* \"#utility.yul\":2610:2630   */\n      tag_59\n      jump\t// in\n    tag_78:\n        /* \"#utility.yul\":2605:2630   */\n      swap2\n      pop\n        /* \"#utility.yul\":2644:2664   */\n      tag_79\n        /* \"#utility.yul\":2662:2663   */\n      dup4\n        /* \"#utility.yul\":2644:2664   */\n      tag_59\n      jump\t// in\n    tag_79:\n        /* \"#utility.yul\":2639:2664   */\n      swap3\n      pop\n        /* \"#utility.yul\":2683:2684   */\n      dup3\n        /* \"#utility.yul\":2673:2675   */\n      tag_80\n      jumpi\n        /* \"#utility.yul\":2688:2706   */\n      tag_81\n      tag_82\n      jump\t// in\n    tag_81:\n        /* \"#utility.yul\":2673:2675   */\n    tag_80:\n        /* \"#utility.yul\":2729:2730   */\n      dup3\n        /* \"#utility.yul\":2726:2727   */\n      dup3\n        /* \"#utility.yul\":2722:2731   */\n      mod\n        /* \"#utility.yul\":2717:2731   */\n      swap1\n      pop\n        /* \"#utility.yul\":2595:2737   */\n      swap3\n      swap2\n      pop\n      pop\n      jump\t// out\n        /* \"#utility.yul\":2743:2923   */\n    tag_70:\n        /* \"#utility.yul\":2791:2868   */\n      0x4e487b7100000000000000000000000000000000000000000000000000000000\n        /* \"#utility.yul\":2788:2789   */\n      0x00\n        /* \"#utility.yul\":2781:2869   */\n      mstore\n        /* \"#utility.yul\":2888:2892   */\n      0x11\n        /* \"#utility.yul\":2885:2886   */\n      0x04\n        /* \"#utility.yul\":2878:2893   */\n      mstore\n        /* \"#utility.yul\":2912:2916   */\n      0x24\n        /* \"#utility.yul\":2909:2910   */\n      0x00\n        /* \"#utility.yul\":2902:2917   */\n      revert\n        /* \"#utility.yul\":2929:3109   */\n    tag_82:\n        /* \"#utility.yul\":2977:3054   */\n      0x4e487b7100000000000000000000000000000000000000000000000000000000\n        /* \"#utility.yul\":2974:2975   */\n      0x00\n        /* \"#utility.yul\":2967:3055   */\n      mstore\n        /* \"#utility.yul\":3074:3078   */\n      0x12\n        /* \"#utility.yul\":3071:3072   */\n      0x04\n        /* \"#utility.yul\":3064:3079   */\n      mstore\n        /* \"#utility.yul\":3098:3102   */\n      0x24\n        /* \"#utility.yul\":3095:3096   */\n      0x00\n        /* \"#utility.yul\":3088:3103   */\n      revert\n        /* \"#utility.yul\":3115:3237   */\n    tag_46:\n        /* \"#utility.yul\":3188:3212   */\n      tag_86\n        /* \"#utility.yul\":3206:3211   */\n      dup2\n        /* \"#utility.yul\":3188:3212   */\n      tag_59\n      jump\t// in\n    tag_86:\n        /* \"#utility.yul\":3181:3186   */\n      dup2\n        /* \"#utility.yul\":3178:3213   */\n      eq\n        /* \"#utility.yul\":3168:3170   */\n      tag_87\n      jumpi\n        /* \"#utility.yul\":3227:3228   */\n      0x00\n        /* \"#utility.yul\":3224:3225   */\n      dup1\n        /* \"#utility.yul\":3217:3229   */\n      revert\n        /* \"#utility.yul\":3168:3170   */\n    tag_87:\n        /* \"#utility.yul\":3158:3237   */\n      pop\n      jump\t// out\n\n    auxdata: 0xa2646970667358221220b85e9adfd36056bf9572afc7bab9b925b1827bb6eeab0cf1d617d5b6b2bc3c8364736f6c63430008040033\n}\n",
				"bytecode": {
					"linkReferences": {},
					"object": "608060405234801561001057600080fd5b50610484806100206000396000f3fe608060405234801561001057600080fd5b506004361061004c5760003560e01c806304f4ceaa14610051578063871f9af414610081578063b1b45b1b146100b2578063dd125e37146100e2575b600080fd5b61006b60048036038101906100669190610210565b610113565b60405161007891906102aa565b60405180910390f35b61009b6004803603810190610096919061024c565b610129565b6040516100a99291906102c5565b60405180910390f35b6100cc60048036038101906100c79190610210565b610187565b6040516100d991906102aa565b60405180910390f35b6100fc60048036038101906100f7919061024c565b61019d565b60405161010a9291906102c5565b60405180910390f35b600081836101219190610344565b905092915050565b6000808280610161577f4e487b7100000000000000000000000000000000000000000000000000000000600052601260045260246000fd5b8486098385876101719190610344565b61017b91906103a8565b91509150935093915050565b6000818361019591906102ee565b905092915050565b60008082806101d5577f4e487b7100000000000000000000000000000000000000000000000000000000600052601260045260246000fd5b8486088385876101e591906102ee565b6101ef91906103a8565b91509150935093915050565b60008135905061020a81610437565b92915050565b6000806040838503121561022357600080fd5b6000610231858286016101fb565b9250506020610242858286016101fb565b9150509250929050565b60008060006060848603121561026157600080fd5b600061026f868287016101fb565b9350506020610280868287016101fb565b9250506040610291868287016101fb565b9150509250925092565b6102a48161039e565b82525050565b60006020820190506102bf600083018461029b565b92915050565b60006040820190506102da600083018561029b565b6102e7602083018461029b565b9392505050565b60006102f98261039e565b91506103048361039e565b9250827fffffffffffffffffffffffffffffffffffffffffffffffffffffffffffffffff03821115610339576103386103d9565b5b828201905092915050565b600061034f8261039e565b915061035a8361039e565b9250817fffffffffffffffffffffffffffffffffffffffffffffffffffffffffffffffff0483118215151615610393576103926103d9565b5b828202905092915050565b6000819050919050565b60006103b38261039e565b91506103be8361039e565b9250826103ce576103cd610408565b5b828206905092915050565b7f4e487b7100000000000000000000000000000000000000000000000000000000600052601160045260246000fd5b7f4e487b7100000000000000000000000000000000000000000000000000000000600052601260045260246000fd5b6104408161039e565b811461044b57600080fd5b5056fea2646970667358221220b85e9adfd36056bf9572afc7bab9b925b1827bb6eeab0cf1d617d5b6b2bc3c8364736f6c63430008040033",
					"opcodes": "PUSH1 0x80 PUSH1 0x40 MSTORE CALLVALUE DUP1 ISZERO PUSH2 0x10 JUMPI PUSH1 0x0 DUP1 REVERT JUMPDEST POP PUSH2 0x484 DUP1 PUSH2 0x20 PUSH1 0x0 CODECOPY PUSH1 0x0 RETURN INVALID PUSH1 0x80 PUSH1 0x40 MSTORE CALLVALUE DUP1 ISZERO PUSH2 0x10 JUMPI PUSH1 0x0 DUP1 REVERT JUMPDEST POP PUSH1 0x4 CALLDATASIZE LT PUSH2 0x4C JUMPI PUSH1 0x0 CALLDATALOAD PUSH1 0xE0 SHR DUP1 PUSH4 0x4F4CEAA EQ PUSH2 0x51 JUMPI DUP1 PUSH4 0x871F9AF4 EQ PUSH2 0x81 JUMPI DUP1 PUSH4 0xB1B45B1B EQ PUSH2 0xB2 JUMPI DUP1 PUSH4 0xDD125E37 EQ PUSH2 0xE2 JUMPI JUMPDEST PUSH1 0x0 DUP1 REVERT JUMPDEST PUSH2 0x6B PUSH1 0x4 DUP1 CALLDATASIZE SUB DUP2 ADD SWAP1 PUSH2 0x66 SWAP2 SWAP1 PUSH2 0x210 JUMP JUMPDEST PUSH2 0x113 JUMP JUMPDEST PUSH1 0x40 MLOAD PUSH2 0x78 SWAP2 SWAP1 PUSH2 0x2AA JUMP JUMPDEST PUSH1 0x40 MLOAD DUP1 SWAP2 SUB SWAP1 RETURN JUMPDEST PUSH2 0x9B PUSH1 0x4 DUP1 CALLDATASIZE SUB DUP2 ADD SWAP1 PUSH2 0x96 SWAP2 SWAP1 PUSH2 0x24C JUMP JUMPDEST PUSH2 0x129 JUMP JUMPDEST PUSH1 0x40 MLOAD PUSH2 0xA9 SWAP3 SWAP2 SWAP1 PUSH2 0x2C5 JUMP JUMPDEST PUSH1 0x40 MLOAD DUP1 SWAP2 SUB SWAP1 RETURN JUMPDEST PUSH2 0xCC PUSH1 0x4 DUP1 CALLDATASIZE SUB DUP2 ADD SWAP1 PUSH2 0xC7 SWAP2 SWAP1 PUSH2 0x210 JUMP JUMPDEST PUSH2 0x187 JUMP JUMPDEST PUSH1 0x40 MLOAD PUSH2 0xD9 SWAP2 SWAP1 PUSH2 0x2AA JUMP JUMPDEST PUSH1 0x40 MLOAD DUP1 SWAP2 SUB SWAP1 RETURN JUMPDEST PUSH2 0xFC PUSH1 0x4 DUP1 CALLDATASIZE SUB DUP2 ADD SWAP1 PUSH2 0xF7 SWAP2 SWAP1 PUSH2 0x24C JUMP JUMPDEST PUSH2 0x19D JUMP JUMPDEST PUSH1 0x40 MLOAD PUSH2 0x10A SWAP3 SWAP2 SWAP1 PUSH2 0x2C5 JUMP JUMPDEST PUSH1 0x40 MLOAD DUP1 SWAP2 SUB SWAP1 RETURN JUMPDEST PUSH1 0x0 DUP2 DUP4 PUSH2 0x121 SWAP2 SWAP1 PUSH2 0x344 JUMP JUMPDEST SWAP1 POP SWAP3 SWAP2 POP POP JUMP JUMPDEST PUSH1 0x0 DUP1 DUP3 DUP1 PUSH2 0x161 JUMPI PUSH32 0x4E487B7100000000000000000000000000000000000000000000000000000000 PUSH1 0x0 MSTORE PUSH1 0x12 PUSH1 0x4 MSTORE PUSH1 0x24 PUSH1 0x0 REVERT JUMPDEST DUP5 DUP7 MULMOD DUP4 DUP6 DUP8 PUSH2 0x171 SWAP2 SWAP1 PUSH2 0x344 JUMP JUMPDEST PUSH2 0x17B SWAP2 SWAP1 PUSH2 0x3A8 JUMP JUMPDEST SWAP2 POP SWAP2 POP SWAP4 POP SWAP4 SWAP2 POP POP JUMP JUMPDEST PUSH1 0x0 DUP2 DUP4 PUSH2 0x195 SWAP2 SWAP1 PUSH2 0x2EE JUMP JUMPDEST SWAP1 POP SWAP3 SWAP2 POP POP JUMP JUMPDEST PUSH1 0x0 DUP1 DUP3 DUP1 PUSH2 0x1D5 JUMPI PUSH32 0x4E487B7100000000000000000000000000000000000000000000000000000000 PUSH1 0x0 MSTORE PUSH1 0x12 PUSH1 0x4 MSTORE PUSH1 0x24 PUSH1 0x0 REVERT JUMPDEST DUP5 DUP7 ADDMOD DUP4 DUP6 DUP8 PUSH2 0x1E5 SWAP2 SWAP1 PUSH2 0x2EE JUMP JUMPDEST PUSH2 0x1EF SWAP2 SWAP1 PUSH2 0x3A8 JUMP JUMPDEST SWAP2 POP SWAP2 POP SWAP4 POP SWAP4 SWAP2 POP POP JUMP JUMPDEST PUSH1 0x0 DUP2 CALLDATALOAD SWAP1 POP PUSH2 0x20A DUP2 PUSH2 0x437 JUMP JUMPDEST SWAP3 SWAP2 POP POP JUMP JUMPDEST PUSH1 0x0 DUP1 PUSH1 0x40 DUP4 DUP6 SUB SLT ISZERO PUSH2 0x223 JUMPI PUSH1 0x0 DUP1 REVERT JUMPDEST PUSH1 0x0 PUSH2 0x231 DUP6 DUP3 DUP7 ADD PUSH2 0x1FB JUMP JUMPDEST SWAP3 POP POP PUSH1 0x20 PUSH2 0x242 DUP6 DUP3 DUP7 ADD PUSH2 0x1FB JUMP JUMPDEST SWAP2 POP POP SWAP3 POP SWAP3 SWAP1 POP JUMP JUMPDEST PUSH1 0x0 DUP1 PUSH1 0x0 PUSH1 0x60 DUP5 DUP7 SUB SLT ISZERO PUSH2 0x261 JUMPI PUSH1 0x0 DUP1 REVERT JUMPDEST PUSH1 0x0 PUSH2 0x26F DUP7 DUP3 DUP8 ADD PUSH2 0x1FB JUMP JUMPDEST SWAP4 POP POP PUSH1 0x20 PUSH2 0x280 DUP7 DUP3 DUP8 ADD PUSH2 0x1FB JUMP JUMPDEST SWAP3 POP POP PUSH1 0x40 PUSH2 0x291 DUP7 DUP3 DUP8 ADD PUSH2 0x1FB JUMP JUMPDEST SWAP2 POP POP SWAP3 POP SWAP3 POP SWAP3 JUMP JUMPDEST PUSH2 0x2A4 DUP2 PUSH2 0x39E JUMP JUMPDEST DUP3 MSTORE POP POP JUMP JUMPDEST PUSH1 0x0 PUSH1 0x20 DUP3 ADD SWAP1 POP PUSH2 0x2BF PUSH1 0x0 DUP4 ADD DUP5 PUSH2 0x29B JUMP JUMPDEST SWAP3 SWAP2 POP POP JUMP JUMPDEST PUSH1 0x0 PUSH1 0x40 DUP3 ADD SWAP1 POP PUSH2 0x2DA PUSH1 0x0 DUP4 ADD DUP6 PUSH2 0x29B JUMP JUMPDEST PUSH2 0x2E7 PUSH1 0x20 DUP4 ADD DUP5 PUSH2 0x29B JUMP JUMPDEST SWAP4 SWAP3 POP POP POP JUMP JUMPDEST PUSH1 0x0 PUSH2 0x2F9 DUP3 PUSH2 0x39E JUMP JUMPDEST SWAP2 POP PUSH2 0x304 DUP4 PUSH2 0x39E JUMP JUMPDEST SWAP3 POP DUP3 PUSH32 0xFFFFFFFFFFFFFFFFFFFFFFFFFFFFFFFFFFFFFFFFFFFFFFFFFFFFFFFFFFFFFFFF SUB DUP3 GT ISZERO PUSH2 0x339 JUMPI PUSH2 0x338 PUSH2 0x3D9 JUMP JUMPDEST JUMPDEST DUP3 DUP3 ADD SWAP1 POP SWAP3 SWAP2 POP POP JUMP JUMPDEST PUSH1 0x0 PUSH2 0x34F DUP3 PUSH2 0x39E JUMP JUMPDEST SWAP2 POP PUSH2 0x35A DUP4 PUSH2 0x39E JUMP JUMPDEST SWAP3 POP DUP2 PUSH32 0xFFFFFFFFFFFFFFFFFFFFFFFFFFFFFFFFFFFFFFFFFFFFFFFFFFFFFFFFFFFFFFFF DIV DUP4 GT DUP3 ISZERO ISZERO AND ISZERO PUSH2 0x393 JUMPI PUSH2 0x392 PUSH2 0x3D9 JUMP JUMPDEST JUMPDEST DUP3 DUP3 MUL SWAP1 POP SWAP3 SWAP2 POP POP JUMP JUMPDEST PUSH1 0x0 DUP2 SWAP1 POP SWAP2 SWAP1 POP JUMP JUMPDEST PUSH1 0x0 PUSH2 0x3B3 DUP3 PUSH2 0x39E JUMP JUMPDEST SWAP2 POP PUSH2 0x3BE DUP4 PUSH2 0x39E JUMP JUMPDEST SWAP3 POP DUP3 PUSH2 0x3CE JUMPI PUSH2 0x3CD PUSH2 0x408 JUMP JUMPDEST JUMPDEST DUP3 DUP3 MOD SWAP1 POP SWAP3 SWAP2 POP POP JUMP JUMPDEST PUSH32 0x4E487B7100000000000000000000000000000000000000000000000000000000 PUSH1 0x0 MSTORE PUSH1 0x11 PUSH1 0x4 MSTORE PUSH1 0x24 PUSH1 0x0 REVERT JUMPDEST PUSH32 0x4E487B7100000000000000000000000000000000000000000000000000000000 PUSH1 0x0 MSTORE PUSH1 0x12 PUSH1 0x4 MSTORE PUSH1 0x24 PUSH1 0x0 REVERT JUMPDEST PUSH2 0x440 DUP2 PUSH2 0x39E JUMP JUMPDEST DUP2 EQ PUSH2 0x44B JUMPI PUSH1 0x0 DUP1 REVERT JUMPDEST POP JUMP INVALID LOG2 PUSH5 0x6970667358 0x22 SLT KECCAK256 0xB8 0x5E SWAP11 0xDF 0xD3 PUSH1 0x56 0xBF SWAP6 PUSH19 0xAFC7BAB9B925B1827BB6EEAB0CF1D617D5B6B2 0xBC EXTCODECOPY DUP4 PUSH5 0x736F6C6343 STOP ADDMOD DIV STOP CALLER "
				},
				"gasEstimates": {
					"creation": {
						"codeDepositCost": "231200",
						"executionCost": "275",
						"totalCost": "231475"
					},
					"external": {
						"_addmod(uint256,uint256,uint256)": "infinite",
						"_mulmod(uint256,uint256,uint256)": "infinite",
						"producto(uint256,uint256)": "infinite",
						"suma(uint256,uint256)": "infinite"
					}
				},
				"methodIdentifiers": {
					"_addmod(uint256,uint256,uint256)": "dd125e37",
					"_mulmod(uint256,uint256,uint256)": "871f9af4",
					"producto(uint256,uint256)": "04f4ceaa",
					"suma(uint256,uint256)": "b1b45b1b"
				}
			},
			"storageLayout": {
				"storage": [],
				"types": null
			},
			"userdoc": {
				"kind": "user",
				"methods": {},
				"version": 1
			}
		}
	}
}