{
	"contracts/14_factory.sol": {
		"padre": {
			"abi": [
				{
					"inputs": [],
					"name": "Factory",
					"outputs": [],
					"stateMutability": "nonpayable",
					"type": "function"
				},
				{
					"inputs": [
						{
							"internalType": "address",
							"name": "",
							"type": "address"
						}
					],
					"name": "personal_contract",
					"outputs": [
						{
							"internalType": "address",
							"name": "",
							"type": "address"
						}
					],
					"stateMutability": "view",
					"type": "function"
				}
			],
			"devdoc": {
				"kind": "dev",
				"methods": {},
				"version": 1
			},
			"evm": {
				"assembly": "    /* \"contracts/14_factory.sol\":60:335  contract padre {\r... */\n  mstore(0x40, 0x80)\n  callvalue\n  dup1\n  iszero\n  tag_1\n  jumpi\n  0x00\n  dup1\n  revert\ntag_1:\n  pop\n  dataSize(sub_0)\n  dup1\n  dataOffset(sub_0)\n  0x00\n  codecopy\n  0x00\n  return\nstop\n\nsub_0: assembly {\n        /* \"contracts/14_factory.sol\":60:335  contract padre {\r... */\n      mstore(0x40, 0x80)\n      callvalue\n      dup1\n      iszero\n      tag_1\n      jumpi\n      0x00\n      dup1\n      revert\n    tag_1:\n      pop\n      jumpi(tag_2, lt(calldatasize, 0x04))\n      shr(0xe0, calldataload(0x00))\n      dup1\n      0x17b87d80\n      eq\n      tag_3\n      jumpi\n      dup1\n      0xc83dd231\n      eq\n      tag_4\n      jumpi\n    tag_2:\n      0x00\n      dup1\n      revert\n        /* \"contracts/14_factory.sol\":84:136  mapping(address => address) public personal_contract */\n    tag_3:\n      tag_5\n      0x04\n      dup1\n      calldatasize\n      sub\n      dup2\n      add\n      swap1\n      tag_6\n      swap2\n      swap1\n      tag_7\n      jump\t// in\n    tag_6:\n      tag_8\n      jump\t// in\n    tag_5:\n      mload(0x40)\n      tag_9\n      swap2\n      swap1\n      tag_10\n      jump\t// in\n    tag_9:\n      mload(0x40)\n      dup1\n      swap2\n      sub\n      swap1\n      return\n        /* \"contracts/14_factory.sol\":145:332  function Factory() public {\r... */\n    tag_4:\n      tag_11\n      tag_12\n      jump\t// in\n    tag_11:\n      stop\n        /* \"contracts/14_factory.sol\":84:136  mapping(address => address) public personal_contract */\n    tag_8:\n      mstore(0x20, 0x00)\n      dup1\n      0x00\n      mstore\n      keccak256(0x00, 0x40)\n      0x00\n      swap2\n      pop\n      sload\n      swap1\n      0x0100\n      exp\n      swap1\n      div\n      0xffffffffffffffffffffffffffffffffffffffff\n      and\n      dup2\n      jump\t// out\n        /* \"contracts/14_factory.sol\":145:332  function Factory() public {\r... */\n    tag_12:\n        /* \"contracts/14_factory.sol\":182:212  address addr_personal_contract */\n      0x00\n        /* \"contracts/14_factory.sol\":232:242  msg.sender */\n      caller\n        /* \"contracts/14_factory.sol\":252:256  this */\n      address\n        /* \"contracts/14_factory.sol\":223:258  new hijo(msg.sender, address(this)) */\n      mload(0x40)\n      tag_14\n      swap1\n      tag_15\n      jump\t// in\n    tag_14:\n      tag_16\n      swap3\n      swap2\n      swap1\n      tag_17\n      jump\t// in\n    tag_16:\n      mload(0x40)\n      dup1\n      swap2\n      sub\n      swap1\n      0x00\n      create\n      dup1\n      iszero\n      dup1\n      iszero\n      tag_18\n      jumpi\n      returndatasize\n      0x00\n      dup1\n      returndatacopy\n      revert(0x00, returndatasize)\n    tag_18:\n      pop\n        /* \"contracts/14_factory.sol\":182:259  address addr_personal_contract = address(new hijo(msg.sender, address(this))) */\n      swap1\n      pop\n        /* \"contracts/14_factory.sol\":302:324  addr_personal_contract */\n      dup1\n        /* \"contracts/14_factory.sol\":270:287  personal_contract */\n      0x00\n        /* \"contracts/14_factory.sol\":270:299  personal_contract[msg.sender] */\n      dup1\n        /* \"contracts/14_factory.sol\":288:298  msg.sender */\n      caller\n        /* \"contracts/14_factory.sol\":270:299  personal_contract[msg.sender] */\n      0xffffffffffffffffffffffffffffffffffffffff\n      and\n      0xffffffffffffffffffffffffffffffffffffffff\n      and\n      dup2\n      mstore\n      0x20\n      add\n      swap1\n      dup2\n      mstore\n      0x20\n      add\n      0x00\n      keccak256\n      0x00\n        /* \"contracts/14_factory.sol\":270:324  personal_contract[msg.sender] = addr_personal_contract */\n      0x0100\n      exp\n      dup2\n      sload\n      dup2\n      0xffffffffffffffffffffffffffffffffffffffff\n      mul\n      not\n      and\n      swap1\n      dup4\n      0xffffffffffffffffffffffffffffffffffffffff\n      and\n      mul\n      or\n      swap1\n      sstore\n      pop\n        /* \"contracts/14_factory.sol\":145:332  function Factory() public {\r... */\n      pop\n      jump\t// out\n    tag_15:\n      dataSize(sub_0)\n      dup1\n      dataOffset(sub_0)\n      dup4\n      codecopy\n      add\n      swap1\n      jump\t// out\n        /* \"#utility.yul\":7:146   */\n    tag_20:\n        /* \"#utility.yul\":53:58   */\n      0x00\n        /* \"#utility.yul\":91:97   */\n      dup2\n        /* \"#utility.yul\":78:98   */\n      calldataload\n        /* \"#utility.yul\":69:98   */\n      swap1\n      pop\n        /* \"#utility.yul\":107:140   */\n      tag_22\n        /* \"#utility.yul\":134:139   */\n      dup2\n        /* \"#utility.yul\":107:140   */\n      tag_23\n      jump\t// in\n    tag_22:\n        /* \"#utility.yul\":59:146   */\n      swap3\n      swap2\n      pop\n      pop\n      jump\t// out\n        /* \"#utility.yul\":152:414   */\n    tag_7:\n        /* \"#utility.yul\":211:217   */\n      0x00\n        /* \"#utility.yul\":260:262   */\n      0x20\n        /* \"#utility.yul\":248:257   */\n      dup3\n        /* \"#utility.yul\":239:246   */\n      dup5\n        /* \"#utility.yul\":235:258   */\n      sub\n        /* \"#utility.yul\":231:263   */\n      slt\n        /* \"#utility.yul\":228:230   */\n      iszero\n      tag_25\n      jumpi\n        /* \"#utility.yul\":276:277   */\n      0x00\n        /* \"#utility.yul\":273:274   */\n      dup1\n        /* \"#utility.yul\":266:278   */\n      revert\n        /* \"#utility.yul\":228:230   */\n    tag_25:\n        /* \"#utility.yul\":319:320   */\n      0x00\n        /* \"#utility.yul\":344:397   */\n      tag_26\n        /* \"#utility.yul\":389:396   */\n      dup5\n        /* \"#utility.yul\":380:386   */\n      dup3\n        /* \"#utility.yul\":369:378   */\n      dup6\n        /* \"#utility.yul\":365:387   */\n      add\n        /* \"#utility.yul\":344:397   */\n      tag_20\n      jump\t// in\n    tag_26:\n        /* \"#utility.yul\":334:397   */\n      swap2\n      pop\n        /* \"#utility.yul\":290:407   */\n      pop\n        /* \"#utility.yul\":218:414   */\n      swap3\n      swap2\n      pop\n      pop\n      jump\t// out\n        /* \"#utility.yul\":420:538   */\n    tag_27:\n        /* \"#utility.yul\":507:531   */\n      tag_29\n        /* \"#utility.yul\":525:530   */\n      dup2\n        /* \"#utility.yul\":507:531   */\n      tag_30\n      jump\t// in\n    tag_29:\n        /* \"#utility.yul\":502:505   */\n      dup3\n        /* \"#utility.yul\":495:532   */\n      mstore\n        /* \"#utility.yul\":485:538   */\n      pop\n      pop\n      jump\t// out\n        /* \"#utility.yul\":544:766   */\n    tag_10:\n        /* \"#utility.yul\":637:641   */\n      0x00\n        /* \"#utility.yul\":675:677   */\n      0x20\n        /* \"#utility.yul\":664:673   */\n      dup3\n        /* \"#utility.yul\":660:678   */\n      add\n        /* \"#utility.yul\":652:678   */\n      swap1\n      pop\n        /* \"#utility.yul\":688:759   */\n      tag_32\n        /* \"#utility.yul\":756:757   */\n      0x00\n        /* \"#utility.yul\":745:754   */\n      dup4\n        /* \"#utility.yul\":741:758   */\n      add\n        /* \"#utility.yul\":732:738   */\n      dup5\n        /* \"#utility.yul\":688:759   */\n      tag_27\n      jump\t// in\n    tag_32:\n        /* \"#utility.yul\":642:766   */\n      swap3\n      swap2\n      pop\n      pop\n      jump\t// out\n        /* \"#utility.yul\":772:1104   */\n    tag_17:\n        /* \"#utility.yul\":893:897   */\n      0x00\n        /* \"#utility.yul\":931:933   */\n      0x40\n        /* \"#utility.yul\":920:929   */\n      dup3\n        /* \"#utility.yul\":916:934   */\n      add\n        /* \"#utility.yul\":908:934   */\n      swap1\n      pop\n        /* \"#utility.yul\":944:1015   */\n      tag_34\n        /* \"#utility.yul\":1012:1013   */\n      0x00\n        /* \"#utility.yul\":1001:1010   */\n      dup4\n        /* \"#utility.yul\":997:1014   */\n      add\n        /* \"#utility.yul\":988:994   */\n      dup6\n        /* \"#utility.yul\":944:1015   */\n      tag_27\n      jump\t// in\n    tag_34:\n        /* \"#utility.yul\":1025:1097   */\n      tag_35\n        /* \"#utility.yul\":1093:1095   */\n      0x20\n        /* \"#utility.yul\":1082:1091   */\n      dup4\n        /* \"#utility.yul\":1078:1096   */\n      add\n        /* \"#utility.yul\":1069:1075   */\n      dup5\n        /* \"#utility.yul\":1025:1097   */\n      tag_27\n      jump\t// in\n    tag_35:\n        /* \"#utility.yul\":898:1104   */\n      swap4\n      swap3\n      pop\n      pop\n      pop\n      jump\t// out\n        /* \"#utility.yul\":1110:1206   */\n    tag_30:\n        /* \"#utility.yul\":1147:1154   */\n      0x00\n        /* \"#utility.yul\":1176:1200   */\n      tag_37\n        /* \"#utility.yul\":1194:1199   */\n      dup3\n        /* \"#utility.yul\":1176:1200   */\n      tag_38\n      jump\t// in\n    tag_37:\n        /* \"#utility.yul\":1165:1200   */\n      swap1\n      pop\n        /* \"#utility.yul\":1155:1206   */\n      swap2\n      swap1\n      pop\n      jump\t// out\n        /* \"#utility.yul\":1212:1338   */\n    tag_38:\n        /* \"#utility.yul\":1249:1256   */\n      0x00\n        /* \"#utility.yul\":1289:1331   */\n      0xffffffffffffffffffffffffffffffffffffffff\n        /* \"#utility.yul\":1282:1287   */\n      dup3\n        /* \"#utility.yul\":1278:1332   */\n      and\n        /* \"#utility.yul\":1267:1332   */\n      swap1\n      pop\n        /* \"#utility.yul\":1257:1338   */\n      swap2\n      swap1\n      pop\n      jump\t// out\n        /* \"#utility.yul\":1344:1466   */\n    tag_23:\n        /* \"#utility.yul\":1417:1441   */\n      tag_41\n        /* \"#utility.yul\":1435:1440   */\n      dup2\n        /* \"#utility.yul\":1417:1441   */\n      tag_30\n      jump\t// in\n    tag_41:\n        /* \"#utility.yul\":1410:1415   */\n      dup2\n        /* \"#utility.yul\":1407:1442   */\n      eq\n        /* \"#utility.yul\":1397:1399   */\n      tag_42\n      jumpi\n        /* \"#utility.yul\":1456:1457   */\n      0x00\n        /* \"#utility.yul\":1453:1454   */\n      dup1\n        /* \"#utility.yul\":1446:1458   */\n      revert\n        /* \"#utility.yul\":1397:1399   */\n    tag_42:\n        /* \"#utility.yul\":1387:1466   */\n      pop\n      jump\t// out\n    stop\n\n    sub_0: assembly {\n            /* \"contracts/14_factory.sol\":339:671  contract hijo {\r... */\n          mstore(0x40, 0x80)\n            /* \"contracts/14_factory.sol\":485:666  constructor (address _account, address _accountSC) {\r... */\n          callvalue\n          dup1\n          iszero\n          tag_1\n          jumpi\n          0x00\n          dup1\n          revert\n        tag_1:\n          pop\n          mload(0x40)\n          sub(codesize, bytecodeSize)\n          dup1\n          bytecodeSize\n          dup4\n          codecopy\n          dup2\n          dup2\n          add\n          0x40\n          mstore\n          dup2\n          add\n          swap1\n          tag_2\n          swap2\n          swap1\n          tag_3\n          jump\t// in\n        tag_2:\n            /* \"contracts/14_factory.sol\":561:658  Owner({\r... */\n          mload(0x40)\n          dup1\n          0x40\n          add\n          0x40\n          mstore\n          dup1\n            /* \"contracts/14_factory.sol\":591:599  _account */\n          dup4\n            /* \"contracts/14_factory.sol\":561:658  Owner({\r... */\n          0xffffffffffffffffffffffffffffffffffffffff\n          and\n          dup2\n          mstore\n          0x20\n          add\n            /* \"contracts/14_factory.sol\":636:646  _accountSC */\n          dup3\n            /* \"contracts/14_factory.sol\":561:658  Owner({\r... */\n          0xffffffffffffffffffffffffffffffffffffffff\n          and\n          dup2\n          mstore\n          pop\n            /* \"contracts/14_factory.sol\":547:558  propietario */\n          0x00\n            /* \"contracts/14_factory.sol\":547:658  propietario = Owner({\r... */\n          dup1\n          dup3\n          add\n          mload\n          dup2\n          0x00\n          add\n          exp(0x0100, 0x00)\n          dup2\n          sload\n          dup2\n          0xffffffffffffffffffffffffffffffffffffffff\n          mul\n          not\n          and\n          swap1\n          dup4\n          0xffffffffffffffffffffffffffffffffffffffff\n          and\n          mul\n          or\n          swap1\n          sstore\n          pop\n          0x20\n          dup3\n          add\n          mload\n          dup2\n          0x01\n          add\n          exp(0x0100, 0x00)\n          dup2\n          sload\n          dup2\n          0xffffffffffffffffffffffffffffffffffffffff\n          mul\n          not\n          and\n          swap1\n          dup4\n          0xffffffffffffffffffffffffffffffffffffffff\n          and\n          mul\n          or\n          swap1\n          sstore\n          pop\n          swap1\n          pop\n          pop\n            /* \"contracts/14_factory.sol\":485:666  constructor (address _account, address _accountSC) {\r... */\n          pop\n          pop\n            /* \"contracts/14_factory.sol\":339:671  contract hijo {\r... */\n          jump(tag_6)\n            /* \"#utility.yul\":7:150   */\n        tag_8:\n            /* \"#utility.yul\":64:69   */\n          0x00\n            /* \"#utility.yul\":95:101   */\n          dup2\n            /* \"#utility.yul\":89:102   */\n          mload\n            /* \"#utility.yul\":80:102   */\n          swap1\n          pop\n            /* \"#utility.yul\":111:144   */\n          tag_10\n            /* \"#utility.yul\":138:143   */\n          dup2\n            /* \"#utility.yul\":111:144   */\n          tag_11\n          jump\t// in\n        tag_10:\n            /* \"#utility.yul\":70:150   */\n          swap3\n          swap2\n          pop\n          pop\n          jump\t// out\n            /* \"#utility.yul\":156:596   */\n        tag_3:\n            /* \"#utility.yul\":235:241   */\n          0x00\n            /* \"#utility.yul\":243:249   */\n          dup1\n            /* \"#utility.yul\":292:294   */\n          0x40\n            /* \"#utility.yul\":280:289   */\n          dup4\n            /* \"#utility.yul\":271:278   */\n          dup6\n            /* \"#utility.yul\":267:290   */\n          sub\n            /* \"#utility.yul\":263:295   */\n          slt\n            /* \"#utility.yul\":260:262   */\n          iszero\n          tag_13\n          jumpi\n            /* \"#utility.yul\":308:309   */\n          0x00\n            /* \"#utility.yul\":305:306   */\n          dup1\n            /* \"#utility.yul\":298:310   */\n          revert\n            /* \"#utility.yul\":260:262   */\n        tag_13:\n            /* \"#utility.yul\":351:352   */\n          0x00\n            /* \"#utility.yul\":376:440   */\n          tag_14\n            /* \"#utility.yul\":432:439   */\n          dup6\n            /* \"#utility.yul\":423:429   */\n          dup3\n            /* \"#utility.yul\":412:421   */\n          dup7\n            /* \"#utility.yul\":408:430   */\n          add\n            /* \"#utility.yul\":376:440   */\n          tag_8\n          jump\t// in\n        tag_14:\n            /* \"#utility.yul\":366:440   */\n          swap3\n          pop\n            /* \"#utility.yul\":322:450   */\n          pop\n            /* \"#utility.yul\":489:491   */\n          0x20\n            /* \"#utility.yul\":515:579   */\n          tag_15\n            /* \"#utility.yul\":571:578   */\n          dup6\n            /* \"#utility.yul\":562:568   */\n          dup3\n            /* \"#utility.yul\":551:560   */\n          dup7\n            /* \"#utility.yul\":547:569   */\n          add\n            /* \"#utility.yul\":515:579   */\n          tag_8\n          jump\t// in\n        tag_15:\n            /* \"#utility.yul\":505:579   */\n          swap2\n          pop\n            /* \"#utility.yul\":460:589   */\n          pop\n            /* \"#utility.yul\":250:596   */\n          swap3\n          pop\n          swap3\n          swap1\n          pop\n          jump\t// out\n            /* \"#utility.yul\":602:698   */\n        tag_16:\n            /* \"#utility.yul\":639:646   */\n          0x00\n            /* \"#utility.yul\":668:692   */\n          tag_18\n            /* \"#utility.yul\":686:691   */\n          dup3\n            /* \"#utility.yul\":668:692   */\n          tag_19\n          jump\t// in\n        tag_18:\n            /* \"#utility.yul\":657:692   */\n          swap1\n          pop\n            /* \"#utility.yul\":647:698   */\n          swap2\n          swap1\n          pop\n          jump\t// out\n            /* \"#utility.yul\":704:830   */\n        tag_19:\n            /* \"#utility.yul\":741:748   */\n          0x00\n            /* \"#utility.yul\":781:823   */\n          0xffffffffffffffffffffffffffffffffffffffff\n            /* \"#utility.yul\":774:779   */\n          dup3\n            /* \"#utility.yul\":770:824   */\n          and\n            /* \"#utility.yul\":759:824   */\n          swap1\n          pop\n            /* \"#utility.yul\":749:830   */\n          swap2\n          swap1\n          pop\n          jump\t// out\n            /* \"#utility.yul\":836:958   */\n        tag_11:\n            /* \"#utility.yul\":909:933   */\n          tag_22\n            /* \"#utility.yul\":927:932   */\n          dup2\n            /* \"#utility.yul\":909:933   */\n          tag_16\n          jump\t// in\n        tag_22:\n            /* \"#utility.yul\":902:907   */\n          dup2\n            /* \"#utility.yul\":899:934   */\n          eq\n            /* \"#utility.yul\":889:891   */\n          tag_23\n          jumpi\n            /* \"#utility.yul\":948:949   */\n          0x00\n            /* \"#utility.yul\":945:946   */\n          dup1\n            /* \"#utility.yul\":938:950   */\n          revert\n            /* \"#utility.yul\":889:891   */\n        tag_23:\n            /* \"#utility.yul\":879:958   */\n          pop\n          jump\t// out\n            /* \"contracts/14_factory.sol\":339:671  contract hijo {\r... */\n        tag_6:\n          dataSize(sub_0)\n          dup1\n          dataOffset(sub_0)\n          0x00\n          codecopy\n          0x00\n          return\n        stop\n\n        sub_0: assembly {\n                /* \"contracts/14_factory.sol\":339:671  contract hijo {\r... */\n              mstore(0x40, 0x80)\n              callvalue\n              dup1\n              iszero\n              tag_1\n              jumpi\n              0x00\n              dup1\n              revert\n            tag_1:\n              pop\n              jumpi(tag_2, lt(calldatasize, 0x04))\n              shr(0xe0, calldataload(0x00))\n              dup1\n              0x3c4f81cd\n              eq\n              tag_3\n              jumpi\n            tag_2:\n              0x00\n              dup1\n              revert\n                /* \"contracts/14_factory.sol\":362:386  Owner public propietario */\n            tag_3:\n              tag_4\n              tag_5\n              jump\t// in\n            tag_4:\n              mload(0x40)\n              tag_6\n              swap3\n              swap2\n              swap1\n              tag_7\n              jump\t// in\n            tag_6:\n              mload(0x40)\n              dup1\n              swap2\n              sub\n              swap1\n              return\n            tag_5:\n              0x00\n              dup1\n              0x00\n              add\n              0x00\n              swap1\n              sload\n              swap1\n              0x0100\n              exp\n              swap1\n              div\n              0xffffffffffffffffffffffffffffffffffffffff\n              and\n              swap1\n              dup1\n              0x01\n              add\n              0x00\n              swap1\n              sload\n              swap1\n              0x0100\n              exp\n              swap1\n              div\n              0xffffffffffffffffffffffffffffffffffffffff\n              and\n              swap1\n              pop\n              dup3\n              jump\t// out\n                /* \"#utility.yul\":7:125   */\n            tag_9:\n                /* \"#utility.yul\":94:118   */\n              tag_11\n                /* \"#utility.yul\":112:117   */\n              dup2\n                /* \"#utility.yul\":94:118   */\n              tag_12\n              jump\t// in\n            tag_11:\n                /* \"#utility.yul\":89:92   */\n              dup3\n                /* \"#utility.yul\":82:119   */\n              mstore\n                /* \"#utility.yul\":72:125   */\n              pop\n              pop\n              jump\t// out\n                /* \"#utility.yul\":131:463   */\n            tag_7:\n                /* \"#utility.yul\":252:256   */\n              0x00\n                /* \"#utility.yul\":290:292   */\n              0x40\n                /* \"#utility.yul\":279:288   */\n              dup3\n                /* \"#utility.yul\":275:293   */\n              add\n                /* \"#utility.yul\":267:293   */\n              swap1\n              pop\n                /* \"#utility.yul\":303:374   */\n              tag_14\n                /* \"#utility.yul\":371:372   */\n              0x00\n                /* \"#utility.yul\":360:369   */\n              dup4\n                /* \"#utility.yul\":356:373   */\n              add\n                /* \"#utility.yul\":347:353   */\n              dup6\n                /* \"#utility.yul\":303:374   */\n              tag_9\n              jump\t// in\n            tag_14:\n                /* \"#utility.yul\":384:456   */\n              tag_15\n                /* \"#utility.yul\":452:454   */\n              0x20\n                /* \"#utility.yul\":441:450   */\n              dup4\n                /* \"#utility.yul\":437:455   */\n              add\n                /* \"#utility.yul\":428:434   */\n              dup5\n                /* \"#utility.yul\":384:456   */\n              tag_9\n              jump\t// in\n            tag_15:\n                /* \"#utility.yul\":257:463   */\n              swap4\n              swap3\n              pop\n              pop\n              pop\n              jump\t// out\n                /* \"#utility.yul\":469:565   */\n            tag_12:\n                /* \"#utility.yul\":506:513   */\n              0x00\n                /* \"#utility.yul\":535:559   */\n              tag_17\n                /* \"#utility.yul\":553:558   */\n              dup3\n                /* \"#utility.yul\":535:559   */\n              tag_18\n              jump\t// in\n            tag_17:\n                /* \"#utility.yul\":524:559   */\n              swap1\n              pop\n                /* \"#utility.yul\":514:565   */\n              swap2\n              swap1\n              pop\n              jump\t// out\n                /* \"#utility.yul\":571:697   */\n            tag_18:\n                /* \"#utility.yul\":608:615   */\n              0x00\n                /* \"#utility.yul\":648:690   */\n              0xffffffffffffffffffffffffffffffffffffffff\n                /* \"#utility.yul\":641:646   */\n              dup3\n                /* \"#utility.yul\":637:691   */\n              and\n                /* \"#utility.yul\":626:691   */\n              swap1\n              pop\n                /* \"#utility.yul\":616:697   */\n              swap2\n              swap1\n              pop\n              jump\t// out\n\n            auxdata: 0xa2646970667358221220b8fc50ebbaf91194e0a43a7192c28bc22a5ee0ce016610f1f19431224c4b972864736f6c63430008040033\n        }\n    }\n\n    auxdata: 0xa26469706673582212208c7bb65014044f506fcb388f2e87c367e267457fad934eb5a6b2d94d055a55d764736f6c63430008040033\n}\n",
				"bytecode": {
					"linkReferences": {},
					"object": "608060405234801561001057600080fd5b50610566806100206000396000f3fe608060405234801561001057600080fd5b50600436106100365760003560e01c806317b87d801461003b578063c83dd2311461006b575b600080fd5b61005560048036038101906100509190610184565b610075565b60405161006291906101bc565b60405180910390f35b6100736100a8565b005b60006020528060005260406000206000915054906101000a900473ffffffffffffffffffffffffffffffffffffffff1681565b600033306040516100b890610162565b6100c39291906101d7565b604051809103906000f0801580156100df573d6000803e3d6000fd5b509050806000803373ffffffffffffffffffffffffffffffffffffffff1673ffffffffffffffffffffffffffffffffffffffff16815260200190815260200160002060006101000a81548173ffffffffffffffffffffffffffffffffffffffff021916908373ffffffffffffffffffffffffffffffffffffffff16021790555050565b6102e78061024a83390190565b60008135905061017e81610232565b92915050565b60006020828403121561019657600080fd5b60006101a48482850161016f565b91505092915050565b6101b681610200565b82525050565b60006020820190506101d160008301846101ad565b92915050565b60006040820190506101ec60008301856101ad565b6101f960208301846101ad565b9392505050565b600061020b82610212565b9050919050565b600073ffffffffffffffffffffffffffffffffffffffff82169050919050565b61023b81610200565b811461024657600080fd5b5056fe608060405234801561001057600080fd5b506040516102e73803806102e783398181016040528101906100329190610121565b60405180604001604052808373ffffffffffffffffffffffffffffffffffffffff1681526020018273ffffffffffffffffffffffffffffffffffffffff168152506000808201518160000160006101000a81548173ffffffffffffffffffffffffffffffffffffffff021916908373ffffffffffffffffffffffffffffffffffffffff16021790555060208201518160010160006101000a81548173ffffffffffffffffffffffffffffffffffffffff021916908373ffffffffffffffffffffffffffffffffffffffff16021790555090505050506101a6565b60008151905061011b8161018f565b92915050565b6000806040838503121561013457600080fd5b60006101428582860161010c565b92505060206101538582860161010c565b9150509250929050565b60006101688261016f565b9050919050565b600073ffffffffffffffffffffffffffffffffffffffff82169050919050565b6101988161015d565b81146101a357600080fd5b50565b610132806101b56000396000f3fe6080604052348015600f57600080fd5b506004361060285760003560e01c80633c4f81cd14602d575b600080fd5b60336048565b604051603f92919060a7565b60405180910390f35b60008060000160009054906101000a900473ffffffffffffffffffffffffffffffffffffffff16908060010160009054906101000a900473ffffffffffffffffffffffffffffffffffffffff16905082565b60a18160cc565b82525050565b600060408201905060ba6000830185609a565b60c56020830184609a565b9392505050565b600060d58260dc565b9050919050565b600073ffffffffffffffffffffffffffffffffffffffff8216905091905056fea2646970667358221220b8fc50ebbaf91194e0a43a7192c28bc22a5ee0ce016610f1f19431224c4b972864736f6c63430008040033a26469706673582212208c7bb65014044f506fcb388f2e87c367e267457fad934eb5a6b2d94d055a55d764736f6c63430008040033",
					"opcodes": "PUSH1 0x80 PUSH1 0x40 MSTORE CALLVALUE DUP1 ISZERO PUSH2 0x10 JUMPI PUSH1 0x0 DUP1 REVERT JUMPDEST POP PUSH2 0x566 DUP1 PUSH2 0x20 PUSH1 0x0 CODECOPY PUSH1 0x0 RETURN INVALID PUSH1 0x80 PUSH1 0x40 MSTORE CALLVALUE DUP1 ISZERO PUSH2 0x10 JUMPI PUSH1 0x0 DUP1 REVERT JUMPDEST POP PUSH1 0x4 CALLDATASIZE LT PUSH2 0x36 JUMPI PUSH1 0x0 CALLDATALOAD PUSH1 0xE0 SHR DUP1 PUSH4 0x17B87D80 EQ PUSH2 0x3B JUMPI DUP1 PUSH4 0xC83DD231 EQ PUSH2 0x6B JUMPI JUMPDEST PUSH1 0x0 DUP1 REVERT JUMPDEST PUSH2 0x55 PUSH1 0x4 DUP1 CALLDATASIZE SUB DUP2 ADD SWAP1 PUSH2 0x50 SWAP2 SWAP1 PUSH2 0x184 JUMP JUMPDEST PUSH2 0x75 JUMP JUMPDEST PUSH1 0x40 MLOAD PUSH2 0x62 SWAP2 SWAP1 PUSH2 0x1BC JUMP JUMPDEST PUSH1 0x40 MLOAD DUP1 SWAP2 SUB SWAP1 RETURN JUMPDEST PUSH2 0x73 PUSH2 0xA8 JUMP JUMPDEST STOP JUMPDEST PUSH1 0x0 PUSH1 0x20 MSTORE DUP1 PUSH1 0x0 MSTORE PUSH1 0x40 PUSH1 0x0 KECCAK256 PUSH1 0x0 SWAP2 POP SLOAD SWAP1 PUSH2 0x100 EXP SWAP1 DIV PUSH20 0xFFFFFFFFFFFFFFFFFFFFFFFFFFFFFFFFFFFFFFFF AND DUP2 JUMP JUMPDEST PUSH1 0x0 CALLER ADDRESS PUSH1 0x40 MLOAD PUSH2 0xB8 SWAP1 PUSH2 0x162 JUMP JUMPDEST PUSH2 0xC3 SWAP3 SWAP2 SWAP1 PUSH2 0x1D7 JUMP JUMPDEST PUSH1 0x40 MLOAD DUP1 SWAP2 SUB SWAP1 PUSH1 0x0 CREATE DUP1 ISZERO DUP1 ISZERO PUSH2 0xDF JUMPI RETURNDATASIZE PUSH1 0x0 DUP1 RETURNDATACOPY RETURNDATASIZE PUSH1 0x0 REVERT JUMPDEST POP SWAP1 POP DUP1 PUSH1 0x0 DUP1 CALLER PUSH20 0xFFFFFFFFFFFFFFFFFFFFFFFFFFFFFFFFFFFFFFFF AND PUSH20 0xFFFFFFFFFFFFFFFFFFFFFFFFFFFFFFFFFFFFFFFF AND DUP2 MSTORE PUSH1 0x20 ADD SWAP1 DUP2 MSTORE PUSH1 0x20 ADD PUSH1 0x0 KECCAK256 PUSH1 0x0 PUSH2 0x100 EXP DUP2 SLOAD DUP2 PUSH20 0xFFFFFFFFFFFFFFFFFFFFFFFFFFFFFFFFFFFFFFFF MUL NOT AND SWAP1 DUP4 PUSH20 0xFFFFFFFFFFFFFFFFFFFFFFFFFFFFFFFFFFFFFFFF AND MUL OR SWAP1 SSTORE POP POP JUMP JUMPDEST PUSH2 0x2E7 DUP1 PUSH2 0x24A DUP4 CODECOPY ADD SWAP1 JUMP JUMPDEST PUSH1 0x0 DUP2 CALLDATALOAD SWAP1 POP PUSH2 0x17E DUP2 PUSH2 0x232 JUMP JUMPDEST SWAP3 SWAP2 POP POP JUMP JUMPDEST PUSH1 0x0 PUSH1 0x20 DUP3 DUP5 SUB SLT ISZERO PUSH2 0x196 JUMPI PUSH1 0x0 DUP1 REVERT JUMPDEST PUSH1 0x0 PUSH2 0x1A4 DUP5 DUP3 DUP6 ADD PUSH2 0x16F JUMP JUMPDEST SWAP2 POP POP SWAP3 SWAP2 POP POP JUMP JUMPDEST PUSH2 0x1B6 DUP2 PUSH2 0x200 JUMP JUMPDEST DUP3 MSTORE POP POP JUMP JUMPDEST PUSH1 0x0 PUSH1 0x20 DUP3 ADD SWAP1 POP PUSH2 0x1D1 PUSH1 0x0 DUP4 ADD DUP5 PUSH2 0x1AD JUMP JUMPDEST SWAP3 SWAP2 POP POP JUMP JUMPDEST PUSH1 0x0 PUSH1 0x40 DUP3 ADD SWAP1 POP PUSH2 0x1EC PUSH1 0x0 DUP4 ADD DUP6 PUSH2 0x1AD JUMP JUMPDEST PUSH2 0x1F9 PUSH1 0x20 DUP4 ADD DUP5 PUSH2 0x1AD JUMP JUMPDEST SWAP4 SWAP3 POP POP POP JUMP JUMPDEST PUSH1 0x0 PUSH2 0x20B DUP3 PUSH2 0x212 JUMP JUMPDEST SWAP1 POP SWAP2 SWAP1 POP JUMP JUMPDEST PUSH1 0x0 PUSH20 0xFFFFFFFFFFFFFFFFFFFFFFFFFFFFFFFFFFFFFFFF DUP3 AND SWAP1 POP SWAP2 SWAP1 POP JUMP JUMPDEST PUSH2 0x23B DUP2 PUSH2 0x200 JUMP JUMPDEST DUP2 EQ PUSH2 0x246 JUMPI PUSH1 0x0 DUP1 REVERT JUMPDEST POP JUMP INVALID PUSH1 0x80 PUSH1 0x40 MSTORE CALLVALUE DUP1 ISZERO PUSH2 0x10 JUMPI PUSH1 0x0 DUP1 REVERT JUMPDEST POP PUSH1 0x40 MLOAD PUSH2 0x2E7 CODESIZE SUB DUP1 PUSH2 0x2E7 DUP4 CODECOPY DUP2 DUP2 ADD PUSH1 0x40 MSTORE DUP2 ADD SWAP1 PUSH2 0x32 SWAP2 SWAP1 PUSH2 0x121 JUMP JUMPDEST PUSH1 0x40 MLOAD DUP1 PUSH1 0x40 ADD PUSH1 0x40 MSTORE DUP1 DUP4 PUSH20 0xFFFFFFFFFFFFFFFFFFFFFFFFFFFFFFFFFFFFFFFF AND DUP2 MSTORE PUSH1 0x20 ADD DUP3 PUSH20 0xFFFFFFFFFFFFFFFFFFFFFFFFFFFFFFFFFFFFFFFF AND DUP2 MSTORE POP PUSH1 0x0 DUP1 DUP3 ADD MLOAD DUP2 PUSH1 0x0 ADD PUSH1 0x0 PUSH2 0x100 EXP DUP2 SLOAD DUP2 PUSH20 0xFFFFFFFFFFFFFFFFFFFFFFFFFFFFFFFFFFFFFFFF MUL NOT AND SWAP1 DUP4 PUSH20 0xFFFFFFFFFFFFFFFFFFFFFFFFFFFFFFFFFFFFFFFF AND MUL OR SWAP1 SSTORE POP PUSH1 0x20 DUP3 ADD MLOAD DUP2 PUSH1 0x1 ADD PUSH1 0x0 PUSH2 0x100 EXP DUP2 SLOAD DUP2 PUSH20 0xFFFFFFFFFFFFFFFFFFFFFFFFFFFFFFFFFFFFFFFF MUL NOT AND SWAP1 DUP4 PUSH20 0xFFFFFFFFFFFFFFFFFFFFFFFFFFFFFFFFFFFFFFFF AND MUL OR SWAP1 SSTORE POP SWAP1 POP POP POP POP PUSH2 0x1A6 JUMP JUMPDEST PUSH1 0x0 DUP2 MLOAD SWAP1 POP PUSH2 0x11B DUP2 PUSH2 0x18F JUMP JUMPDEST SWAP3 SWAP2 POP POP JUMP JUMPDEST PUSH1 0x0 DUP1 PUSH1 0x40 DUP4 DUP6 SUB SLT ISZERO PUSH2 0x134 JUMPI PUSH1 0x0 DUP1 REVERT JUMPDEST PUSH1 0x0 PUSH2 0x142 DUP6 DUP3 DUP7 ADD PUSH2 0x10C JUMP JUMPDEST SWAP3 POP POP PUSH1 0x20 PUSH2 0x153 DUP6 DUP3 DUP7 ADD PUSH2 0x10C JUMP JUMPDEST SWAP2 POP POP SWAP3 POP SWAP3 SWAP1 POP JUMP JUMPDEST PUSH1 0x0 PUSH2 0x168 DUP3 PUSH2 0x16F JUMP JUMPDEST SWAP1 POP SWAP2 SWAP1 POP JUMP JUMPDEST PUSH1 0x0 PUSH20 0xFFFFFFFFFFFFFFFFFFFFFFFFFFFFFFFFFFFFFFFF DUP3 AND SWAP1 POP SWAP2 SWAP1 POP JUMP JUMPDEST PUSH2 0x198 DUP2 PUSH2 0x15D JUMP JUMPDEST DUP2 EQ PUSH2 0x1A3 JUMPI PUSH1 0x0 DUP1 REVERT JUMPDEST POP JUMP JUMPDEST PUSH2 0x132 DUP1 PUSH2 0x1B5 PUSH1 0x0 CODECOPY PUSH1 0x0 RETURN INVALID PUSH1 0x80 PUSH1 0x40 MSTORE CALLVALUE DUP1 ISZERO PUSH1 0xF JUMPI PUSH1 0x0 DUP1 REVERT JUMPDEST POP PUSH1 0x4 CALLDATASIZE LT PUSH1 0x28 JUMPI PUSH1 0x0 CALLDATALOAD PUSH1 0xE0 SHR DUP1 PUSH4 0x3C4F81CD EQ PUSH1 0x2D JUMPI JUMPDEST PUSH1 0x0 DUP1 REVERT JUMPDEST PUSH1 0x33 PUSH1 0x48 JUMP JUMPDEST PUSH1 0x40 MLOAD PUSH1 0x3F SWAP3 SWAP2 SWAP1 PUSH1 0xA7 JUMP JUMPDEST PUSH1 0x40 MLOAD DUP1 SWAP2 SUB SWAP1 RETURN JUMPDEST PUSH1 0x0 DUP1 PUSH1 0x0 ADD PUSH1 0x0 SWAP1 SLOAD SWAP1 PUSH2 0x100 EXP SWAP1 DIV PUSH20 0xFFFFFFFFFFFFFFFFFFFFFFFFFFFFFFFFFFFFFFFF AND SWAP1 DUP1 PUSH1 0x1 ADD PUSH1 0x0 SWAP1 SLOAD SWAP1 PUSH2 0x100 EXP SWAP1 DIV PUSH20 0xFFFFFFFFFFFFFFFFFFFFFFFFFFFFFFFFFFFFFFFF AND SWAP1 POP DUP3 JUMP JUMPDEST PUSH1 0xA1 DUP2 PUSH1 0xCC JUMP JUMPDEST DUP3 MSTORE POP POP JUMP JUMPDEST PUSH1 0x0 PUSH1 0x40 DUP3 ADD SWAP1 POP PUSH1 0xBA PUSH1 0x0 DUP4 ADD DUP6 PUSH1 0x9A JUMP JUMPDEST PUSH1 0xC5 PUSH1 0x20 DUP4 ADD DUP5 PUSH1 0x9A JUMP JUMPDEST SWAP4 SWAP3 POP POP POP JUMP JUMPDEST PUSH1 0x0 PUSH1 0xD5 DUP3 PUSH1 0xDC JUMP JUMPDEST SWAP1 POP SWAP2 SWAP1 POP JUMP JUMPDEST PUSH1 0x0 PUSH20 0xFFFFFFFFFFFFFFFFFFFFFFFFFFFFFFFFFFFFFFFF DUP3 AND SWAP1 POP SWAP2 SWAP1 POP JUMP INVALID LOG2 PUSH5 0x6970667358 0x22 SLT KECCAK256 0xB8 0xFC POP 0xEB 0xBA 0xF9 GT SWAP5 0xE0 LOG4 GASPRICE PUSH18 0x92C28BC22A5EE0CE016610F1F19431224C4B SWAP8 0x28 PUSH5 0x736F6C6343 STOP ADDMOD DIV STOP CALLER LOG2 PUSH5 0x6970667358 0x22 SLT KECCAK256 DUP13 PUSH28 0xB65014044F506FCB388F2E87C367E267457FAD934EB5A6B2D94D055A SSTORE 0xD7 PUSH5 0x736F6C6343 STOP ADDMOD DIV STOP CALLER "
				},
				"gasEstimates": {
					"creation": {
						"codeDepositCost": "276400",
						"executionCost": "318",
						"totalCost": "276718"
					},
					"external": {
						"Factory()": "infinite",
						"personal_contract(address)": "infinite"
					}
				},
				"methodIdentifiers": {
					"Factory()": "c83dd231",
					"personal_contract(address)": "17b87d80"
				}
			},
			"storageLayout": {
				"storage": [
					{
						"astId": 5,
						"contract": "contracts/14_factory.sol:padre",
						"label": "personal_contract",
						"offset": 0,
						"slot": "0",
						"type": "t_mapping(t_address,t_address)"
					}
				],
				"types": {
					"t_address": {
						"encoding": "inplace",
						"label": "address",
						"numberOfBytes": "20"
					},
					"t_mapping(t_address,t_address)": {
						"encoding": "mapping",
						"key": "t_address",
						"label": "mapping(address => address)",
						"numberOfBytes": "32",
						"value": "t_address"
					}
				}
			},
			"userdoc": {
				"kind": "user",
				"methods": {},
				"version": 1
			}
		}
	}
}