{
	"contracts/8_payable.sol": {
		"ethSend": {
			"abi": [
				{
					"inputs": [],
					"stateMutability": "payable",
					"type": "constructor"
				},
				{
					"anonymous": false,
					"inputs": [
						{
							"indexed": false,
							"internalType": "bool",
							"name": "",
							"type": "bool"
						},
						{
							"indexed": false,
							"internalType": "bytes",
							"name": "",
							"type": "bytes"
						}
					],
					"name": "callStatus",
					"type": "event"
				},
				{
					"anonymous": false,
					"inputs": [
						{
							"indexed": false,
							"internalType": "bool",
							"name": "",
							"type": "bool"
						}
					],
					"name": "sendStatus",
					"type": "event"
				},
				{
					"inputs": [
						{
							"internalType": "address payable",
							"name": "_to",
							"type": "address"
						}
					],
					"name": "sendViaCall",
					"outputs": [],
					"stateMutability": "payable",
					"type": "function"
				},
				{
					"inputs": [
						{
							"internalType": "address payable",
							"name": "_to",
							"type": "address"
						}
					],
					"name": "sendViaSend",
					"outputs": [],
					"stateMutability": "payable",
					"type": "function"
				},
				{
					"inputs": [
						{
							"internalType": "address payable",
							"name": "_to",
							"type": "address"
						}
					],
					"name": "sendViaTransfer",
					"outputs": [],
					"stateMutability": "payable",
					"type": "function"
				},
				{
					"stateMutability": "payable",
					"type": "receive"
				}
			],
			"devdoc": {
				"kind": "dev",
				"methods": {},
				"version": 1
			},
			"evm": {
				"assembly": "    /* \"contracts/8_payable.sol\":60:815  contract ethSend {\r... */\n  mstore(0x40, 0x80)\n  dataSize(sub_0)\n  dup1\n  dataOffset(sub_0)\n  0x00\n  codecopy\n  0x00\n  return\nstop\n\nsub_0: assembly {\n        /* \"contracts/8_payable.sol\":60:815  contract ethSend {\r... */\n      mstore(0x40, 0x80)\n      jumpi(tag_1, lt(calldatasize, 0x04))\n      shr(0xe0, calldataload(0x00))\n      dup1\n      0x636e082b\n      eq\n      tag_3\n      jumpi\n      dup1\n      0x74be4806\n      eq\n      tag_4\n      jumpi\n      dup1\n      0x830c29ae\n      eq\n      tag_5\n      jumpi\n      jump(tag_2)\n    tag_1:\n      jumpi(tag_2, calldatasize)\n      stop\n    tag_2:\n      0x00\n      dup1\n      revert\n        /* \"contracts/8_payable.sol\":238:339  function sendViaTransfer(address payable _to) public payable {\r... */\n    tag_3:\n      tag_8\n      0x04\n      dup1\n      calldatasize\n      sub\n      dup2\n      add\n      swap1\n      tag_9\n      swap2\n      swap1\n      tag_10\n      jump\t// in\n    tag_9:\n      tag_11\n      jump\t// in\n    tag_8:\n      stop\n        /* \"contracts/8_payable.sol\":359:551  function sendViaSend(address payable _to) public payable {\r... */\n    tag_4:\n      tag_12\n      0x04\n      dup1\n      calldatasize\n      sub\n      dup2\n      add\n      swap1\n      tag_13\n      swap2\n      swap1\n      tag_10\n      jump\t// in\n    tag_13:\n      tag_14\n      jump\t// in\n    tag_12:\n      stop\n        /* \"contracts/8_payable.sol\":571:810  function sendViaCall(address payable _to) public payable {\r... */\n    tag_5:\n      tag_15\n      0x04\n      dup1\n      calldatasize\n      sub\n      dup2\n      add\n      swap1\n      tag_16\n      swap2\n      swap1\n      tag_10\n      jump\t// in\n    tag_16:\n      tag_17\n      jump\t// in\n    tag_15:\n      stop\n        /* \"contracts/8_payable.sol\":238:339  function sendViaTransfer(address payable _to) public payable {\r... */\n    tag_11:\n        /* \"contracts/8_payable.sol\":310:313  _to */\n      dup1\n        /* \"contracts/8_payable.sol\":310:322  _to.transfer */\n      0xffffffffffffffffffffffffffffffffffffffff\n      and\n        /* \"contracts/8_payable.sol\":310:331  _to.transfer(1 ether) */\n      0x08fc\n        /* \"contracts/8_payable.sol\":323:330  1 ether */\n      0x0de0b6b3a7640000\n        /* \"contracts/8_payable.sol\":310:331  _to.transfer(1 ether) */\n      swap1\n      dup2\n      iszero\n      mul\n      swap1\n      mload(0x40)\n      0x00\n      mload(0x40)\n      dup1\n      dup4\n      sub\n      dup2\n      dup6\n      dup9\n      dup9\n      call\n      swap4\n      pop\n      pop\n      pop\n      pop\n      iszero\n      dup1\n      iszero\n      tag_20\n      jumpi\n      returndatasize\n      0x00\n      dup1\n      returndatacopy\n      revert(0x00, returndatasize)\n    tag_20:\n      pop\n        /* \"contracts/8_payable.sol\":238:339  function sendViaTransfer(address payable _to) public payable {\r... */\n      pop\n      jump\t// out\n        /* \"contracts/8_payable.sol\":359:551  function sendViaSend(address payable _to) public payable {\r... */\n    tag_14:\n        /* \"contracts/8_payable.sol\":427:436  bool sent */\n      0x00\n        /* \"contracts/8_payable.sol\":439:442  _to */\n      dup2\n        /* \"contracts/8_payable.sol\":439:447  _to.send */\n      0xffffffffffffffffffffffffffffffffffffffff\n      and\n        /* \"contracts/8_payable.sol\":439:456  _to.send(1 ether) */\n      0x08fc\n        /* \"contracts/8_payable.sol\":448:455  1 ether */\n      0x0de0b6b3a7640000\n        /* \"contracts/8_payable.sol\":439:456  _to.send(1 ether) */\n      swap1\n      dup2\n      iszero\n      mul\n      swap1\n      mload(0x40)\n      0x00\n      mload(0x40)\n      dup1\n      dup4\n      sub\n      dup2\n      dup6\n      dup9\n      dup9\n      call\n      swap4\n      pop\n      pop\n      pop\n      pop\n        /* \"contracts/8_payable.sol\":427:456  bool sent = _to.send(1 ether) */\n      swap1\n      pop\n        /* \"contracts/8_payable.sol\":472:488  sendStatus(sent) */\n      0x0c46a72a145bed1fc3c2d4b0e023bd11ddb1e3204a898f4119357ecde6d5fe99\n        /* \"contracts/8_payable.sol\":483:487  sent */\n      dup2\n        /* \"contracts/8_payable.sol\":472:488  sendStatus(sent) */\n      mload(0x40)\n      tag_23\n      swap2\n      swap1\n      tag_24\n      jump\t// in\n    tag_23:\n      mload(0x40)\n      dup1\n      swap2\n      sub\n      swap1\n      log1\n        /* \"contracts/8_payable.sol\":515:519  true */\n      0x01\n        /* \"contracts/8_payable.sol\":507:519  sent == true */\n      iszero\n      iszero\n        /* \"contracts/8_payable.sol\":507:511  sent */\n      dup2\n        /* \"contracts/8_payable.sol\":507:519  sent == true */\n      iszero\n      iszero\n      eq\n        /* \"contracts/8_payable.sol\":499:543  require(sent == true, \"El envio ha fallado\") */\n      tag_25\n      jumpi\n      mload(0x40)\n      0x08c379a000000000000000000000000000000000000000000000000000000000\n      dup2\n      mstore\n      0x04\n      add\n      tag_26\n      swap1\n      tag_27\n      jump\t// in\n    tag_26:\n      mload(0x40)\n      dup1\n      swap2\n      sub\n      swap1\n      revert\n    tag_25:\n        /* \"contracts/8_payable.sol\":359:551  function sendViaSend(address payable _to) public payable {\r... */\n      pop\n      pop\n      jump\t// out\n        /* \"contracts/8_payable.sol\":571:810  function sendViaCall(address payable _to) public payable {\r... */\n    tag_17:\n        /* \"contracts/8_payable.sol\":640:652  bool success */\n      0x00\n        /* \"contracts/8_payable.sol\":654:671  bytes memory data */\n      dup1\n        /* \"contracts/8_payable.sol\":675:678  _to */\n      dup3\n        /* \"contracts/8_payable.sol\":675:683  _to.call */\n      0xffffffffffffffffffffffffffffffffffffffff\n      and\n        /* \"contracts/8_payable.sol\":691:698  1 ether */\n      0x0de0b6b3a7640000\n        /* \"contracts/8_payable.sol\":675:703  _to.call{value: 1 ether}(\"\") */\n      mload(0x40)\n      tag_29\n      swap1\n      tag_30\n      jump\t// in\n    tag_29:\n      0x00\n      mload(0x40)\n      dup1\n      dup4\n      sub\n      dup2\n      dup6\n      dup8\n      gas\n      call\n      swap3\n      pop\n      pop\n      pop\n      returndatasize\n      dup1\n      0x00\n      dup2\n      eq\n      tag_33\n      jumpi\n      mload(0x40)\n      swap2\n      pop\n      and(add(returndatasize, 0x3f), not(0x1f))\n      dup3\n      add\n      0x40\n      mstore\n      returndatasize\n      dup3\n      mstore\n      returndatasize\n      0x00\n      0x20\n      dup5\n      add\n      returndatacopy\n      jump(tag_32)\n    tag_33:\n      0x60\n      swap2\n      pop\n    tag_32:\n      pop\n        /* \"contracts/8_payable.sol\":639:703  (bool success, bytes memory data) = _to.call{value: 1 ether}(\"\") */\n      swap2\n      pop\n      swap2\n      pop\n        /* \"contracts/8_payable.sol\":719:744  callStatus(success, data) */\n      0x265b43034d55cb12c6ef2185c7789690588a255cd2822a7b2776748ead4b3203\n        /* \"contracts/8_payable.sol\":730:737  success */\n      dup3\n        /* \"contracts/8_payable.sol\":739:743  data */\n      dup3\n        /* \"contracts/8_payable.sol\":719:744  callStatus(success, data) */\n      mload(0x40)\n      tag_34\n      swap3\n      swap2\n      swap1\n      tag_35\n      jump\t// in\n    tag_34:\n      mload(0x40)\n      dup1\n      swap2\n      sub\n      swap1\n      log1\n        /* \"contracts/8_payable.sol\":774:778  true */\n      0x01\n        /* \"contracts/8_payable.sol\":763:778  success == true */\n      iszero\n      iszero\n        /* \"contracts/8_payable.sol\":763:770  success */\n      dup3\n        /* \"contracts/8_payable.sol\":763:778  success == true */\n      iszero\n      iszero\n      eq\n        /* \"contracts/8_payable.sol\":755:802  require(success == true, \"El envio ha fallado\") */\n      tag_36\n      jumpi\n      mload(0x40)\n      0x08c379a000000000000000000000000000000000000000000000000000000000\n      dup2\n      mstore\n      0x04\n      add\n      tag_37\n      swap1\n      tag_27\n      jump\t// in\n    tag_37:\n      mload(0x40)\n      dup1\n      swap2\n      sub\n      swap1\n      revert\n    tag_36:\n        /* \"contracts/8_payable.sol\":571:810  function sendViaCall(address payable _to) public payable {\r... */\n      pop\n      pop\n      pop\n      jump\t// out\n        /* \"#utility.yul\":7:162   */\n    tag_39:\n        /* \"#utility.yul\":61:66   */\n      0x00\n        /* \"#utility.yul\":99:105   */\n      dup2\n        /* \"#utility.yul\":86:106   */\n      calldataload\n        /* \"#utility.yul\":77:106   */\n      swap1\n      pop\n        /* \"#utility.yul\":115:156   */\n      tag_41\n        /* \"#utility.yul\":150:155   */\n      dup2\n        /* \"#utility.yul\":115:156   */\n      tag_42\n      jump\t// in\n    tag_41:\n        /* \"#utility.yul\":67:162   */\n      swap3\n      swap2\n      pop\n      pop\n      jump\t// out\n        /* \"#utility.yul\":168:446   */\n    tag_10:\n        /* \"#utility.yul\":235:241   */\n      0x00\n        /* \"#utility.yul\":284:286   */\n      0x20\n        /* \"#utility.yul\":272:281   */\n      dup3\n        /* \"#utility.yul\":263:270   */\n      dup5\n        /* \"#utility.yul\":259:282   */\n      sub\n        /* \"#utility.yul\":255:287   */\n      slt\n        /* \"#utility.yul\":252:254   */\n      iszero\n      tag_44\n      jumpi\n        /* \"#utility.yul\":300:301   */\n      0x00\n        /* \"#utility.yul\":297:298   */\n      dup1\n        /* \"#utility.yul\":290:302   */\n      revert\n        /* \"#utility.yul\":252:254   */\n    tag_44:\n        /* \"#utility.yul\":343:344   */\n      0x00\n        /* \"#utility.yul\":368:429   */\n      tag_45\n        /* \"#utility.yul\":421:428   */\n      dup5\n        /* \"#utility.yul\":412:418   */\n      dup3\n        /* \"#utility.yul\":401:410   */\n      dup6\n        /* \"#utility.yul\":397:419   */\n      add\n        /* \"#utility.yul\":368:429   */\n      tag_39\n      jump\t// in\n    tag_45:\n        /* \"#utility.yul\":358:429   */\n      swap2\n      pop\n        /* \"#utility.yul\":314:439   */\n      pop\n        /* \"#utility.yul\":242:446   */\n      swap3\n      swap2\n      pop\n      pop\n      jump\t// out\n        /* \"#utility.yul\":452:561   */\n    tag_46:\n        /* \"#utility.yul\":533:554   */\n      tag_48\n        /* \"#utility.yul\":548:553   */\n      dup2\n        /* \"#utility.yul\":533:554   */\n      tag_49\n      jump\t// in\n    tag_48:\n        /* \"#utility.yul\":528:531   */\n      dup3\n        /* \"#utility.yul\":521:555   */\n      mstore\n        /* \"#utility.yul\":511:561   */\n      pop\n      pop\n      jump\t// out\n        /* \"#utility.yul\":567:927   */\n    tag_50:\n        /* \"#utility.yul\":653:656   */\n      0x00\n        /* \"#utility.yul\":681:719   */\n      tag_52\n        /* \"#utility.yul\":713:718   */\n      dup3\n        /* \"#utility.yul\":681:719   */\n      tag_53\n      jump\t// in\n    tag_52:\n        /* \"#utility.yul\":735:805   */\n      tag_54\n        /* \"#utility.yul\":798:804   */\n      dup2\n        /* \"#utility.yul\":793:796   */\n      dup6\n        /* \"#utility.yul\":735:805   */\n      tag_55\n      jump\t// in\n    tag_54:\n        /* \"#utility.yul\":728:805   */\n      swap4\n      pop\n        /* \"#utility.yul\":814:866   */\n      tag_56\n        /* \"#utility.yul\":859:865   */\n      dup2\n        /* \"#utility.yul\":854:857   */\n      dup6\n        /* \"#utility.yul\":847:851   */\n      0x20\n        /* \"#utility.yul\":840:845   */\n      dup7\n        /* \"#utility.yul\":836:852   */\n      add\n        /* \"#utility.yul\":814:866   */\n      tag_57\n      jump\t// in\n    tag_56:\n        /* \"#utility.yul\":891:920   */\n      tag_58\n        /* \"#utility.yul\":913:919   */\n      dup2\n        /* \"#utility.yul\":891:920   */\n      tag_59\n      jump\t// in\n    tag_58:\n        /* \"#utility.yul\":886:889   */\n      dup5\n        /* \"#utility.yul\":882:921   */\n      add\n        /* \"#utility.yul\":875:921   */\n      swap2\n      pop\n        /* \"#utility.yul\":657:927   */\n      pop\n      swap3\n      swap2\n      pop\n      pop\n      jump\t// out\n        /* \"#utility.yul\":933:1299   */\n    tag_60:\n        /* \"#utility.yul\":1075:1078   */\n      0x00\n        /* \"#utility.yul\":1096:1163   */\n      tag_62\n        /* \"#utility.yul\":1160:1162   */\n      0x13\n        /* \"#utility.yul\":1155:1158   */\n      dup4\n        /* \"#utility.yul\":1096:1163   */\n      tag_63\n      jump\t// in\n    tag_62:\n        /* \"#utility.yul\":1089:1163   */\n      swap2\n      pop\n        /* \"#utility.yul\":1172:1265   */\n      tag_64\n        /* \"#utility.yul\":1261:1264   */\n      dup3\n        /* \"#utility.yul\":1172:1265   */\n      tag_65\n      jump\t// in\n    tag_64:\n        /* \"#utility.yul\":1290:1292   */\n      0x20\n        /* \"#utility.yul\":1285:1288   */\n      dup3\n        /* \"#utility.yul\":1281:1293   */\n      add\n        /* \"#utility.yul\":1274:1293   */\n      swap1\n      pop\n        /* \"#utility.yul\":1079:1299   */\n      swap2\n      swap1\n      pop\n      jump\t// out\n        /* \"#utility.yul\":1305:1703   */\n    tag_66:\n        /* \"#utility.yul\":1464:1467   */\n      0x00\n        /* \"#utility.yul\":1485:1568   */\n      tag_68\n        /* \"#utility.yul\":1566:1567   */\n      0x00\n        /* \"#utility.yul\":1561:1564   */\n      dup4\n        /* \"#utility.yul\":1485:1568   */\n      tag_69\n      jump\t// in\n    tag_68:\n        /* \"#utility.yul\":1478:1568   */\n      swap2\n      pop\n        /* \"#utility.yul\":1577:1670   */\n      tag_70\n        /* \"#utility.yul\":1666:1669   */\n      dup3\n        /* \"#utility.yul\":1577:1670   */\n      tag_71\n      jump\t// in\n    tag_70:\n        /* \"#utility.yul\":1695:1696   */\n      0x00\n        /* \"#utility.yul\":1690:1693   */\n      dup3\n        /* \"#utility.yul\":1686:1697   */\n      add\n        /* \"#utility.yul\":1679:1697   */\n      swap1\n      pop\n        /* \"#utility.yul\":1468:1703   */\n      swap2\n      swap1\n      pop\n      jump\t// out\n        /* \"#utility.yul\":1709:2088   */\n    tag_30:\n        /* \"#utility.yul\":1893:1896   */\n      0x00\n        /* \"#utility.yul\":1915:2062   */\n      tag_73\n        /* \"#utility.yul\":2058:2061   */\n      dup3\n        /* \"#utility.yul\":1915:2062   */\n      tag_66\n      jump\t// in\n    tag_73:\n        /* \"#utility.yul\":1908:2062   */\n      swap2\n      pop\n        /* \"#utility.yul\":2079:2082   */\n      dup2\n        /* \"#utility.yul\":2072:2082   */\n      swap1\n      pop\n        /* \"#utility.yul\":1897:2088   */\n      swap2\n      swap1\n      pop\n      jump\t// out\n        /* \"#utility.yul\":2094:2304   */\n    tag_24:\n        /* \"#utility.yul\":2181:2185   */\n      0x00\n        /* \"#utility.yul\":2219:2221   */\n      0x20\n        /* \"#utility.yul\":2208:2217   */\n      dup3\n        /* \"#utility.yul\":2204:2222   */\n      add\n        /* \"#utility.yul\":2196:2222   */\n      swap1\n      pop\n        /* \"#utility.yul\":2232:2297   */\n      tag_75\n        /* \"#utility.yul\":2294:2295   */\n      0x00\n        /* \"#utility.yul\":2283:2292   */\n      dup4\n        /* \"#utility.yul\":2279:2296   */\n      add\n        /* \"#utility.yul\":2270:2276   */\n      dup5\n        /* \"#utility.yul\":2232:2297   */\n      tag_46\n      jump\t// in\n    tag_75:\n        /* \"#utility.yul\":2186:2304   */\n      swap3\n      swap2\n      pop\n      pop\n      jump\t// out\n        /* \"#utility.yul\":2310:2717   */\n    tag_35:\n        /* \"#utility.yul\":2443:2447   */\n      0x00\n        /* \"#utility.yul\":2481:2483   */\n      0x40\n        /* \"#utility.yul\":2470:2479   */\n      dup3\n        /* \"#utility.yul\":2466:2484   */\n      add\n        /* \"#utility.yul\":2458:2484   */\n      swap1\n      pop\n        /* \"#utility.yul\":2494:2559   */\n      tag_77\n        /* \"#utility.yul\":2556:2557   */\n      0x00\n        /* \"#utility.yul\":2545:2554   */\n      dup4\n        /* \"#utility.yul\":2541:2558   */\n      add\n        /* \"#utility.yul\":2532:2538   */\n      dup6\n        /* \"#utility.yul\":2494:2559   */\n      tag_46\n      jump\t// in\n    tag_77:\n        /* \"#utility.yul\":2606:2615   */\n      dup2\n        /* \"#utility.yul\":2600:2604   */\n      dup2\n        /* \"#utility.yul\":2596:2616   */\n      sub\n        /* \"#utility.yul\":2591:2593   */\n      0x20\n        /* \"#utility.yul\":2580:2589   */\n      dup4\n        /* \"#utility.yul\":2576:2594   */\n      add\n        /* \"#utility.yul\":2569:2617   */\n      mstore\n        /* \"#utility.yul\":2634:2710   */\n      tag_78\n        /* \"#utility.yul\":2705:2709   */\n      dup2\n        /* \"#utility.yul\":2696:2702   */\n      dup5\n        /* \"#utility.yul\":2634:2710   */\n      tag_50\n      jump\t// in\n    tag_78:\n        /* \"#utility.yul\":2626:2710   */\n      swap1\n      pop\n        /* \"#utility.yul\":2448:2717   */\n      swap4\n      swap3\n      pop\n      pop\n      pop\n      jump\t// out\n        /* \"#utility.yul\":2723:3142   */\n    tag_27:\n        /* \"#utility.yul\":2889:2893   */\n      0x00\n        /* \"#utility.yul\":2927:2929   */\n      0x20\n        /* \"#utility.yul\":2916:2925   */\n      dup3\n        /* \"#utility.yul\":2912:2930   */\n      add\n        /* \"#utility.yul\":2904:2930   */\n      swap1\n      pop\n        /* \"#utility.yul\":2976:2985   */\n      dup2\n        /* \"#utility.yul\":2970:2974   */\n      dup2\n        /* \"#utility.yul\":2966:2986   */\n      sub\n        /* \"#utility.yul\":2962:2963   */\n      0x00\n        /* \"#utility.yul\":2951:2960   */\n      dup4\n        /* \"#utility.yul\":2947:2964   */\n      add\n        /* \"#utility.yul\":2940:2987   */\n      mstore\n        /* \"#utility.yul\":3004:3135   */\n      tag_80\n        /* \"#utility.yul\":3130:3134   */\n      dup2\n        /* \"#utility.yul\":3004:3135   */\n      tag_60\n      jump\t// in\n    tag_80:\n        /* \"#utility.yul\":2996:3135   */\n      swap1\n      pop\n        /* \"#utility.yul\":2894:3142   */\n      swap2\n      swap1\n      pop\n      jump\t// out\n        /* \"#utility.yul\":3148:3246   */\n    tag_53:\n        /* \"#utility.yul\":3199:3205   */\n      0x00\n        /* \"#utility.yul\":3233:3238   */\n      dup2\n        /* \"#utility.yul\":3227:3239   */\n      mload\n        /* \"#utility.yul\":3217:3239   */\n      swap1\n      pop\n        /* \"#utility.yul\":3206:3246   */\n      swap2\n      swap1\n      pop\n      jump\t// out\n        /* \"#utility.yul\":3252:3420   */\n    tag_55:\n        /* \"#utility.yul\":3335:3346   */\n      0x00\n        /* \"#utility.yul\":3369:3375   */\n      dup3\n        /* \"#utility.yul\":3364:3367   */\n      dup3\n        /* \"#utility.yul\":3357:3376   */\n      mstore\n        /* \"#utility.yul\":3409:3413   */\n      0x20\n        /* \"#utility.yul\":3404:3407   */\n      dup3\n        /* \"#utility.yul\":3400:3414   */\n      add\n        /* \"#utility.yul\":3385:3414   */\n      swap1\n      pop\n        /* \"#utility.yul\":3347:3420   */\n      swap3\n      swap2\n      pop\n      pop\n      jump\t// out\n        /* \"#utility.yul\":3426:3573   */\n    tag_69:\n        /* \"#utility.yul\":3527:3538   */\n      0x00\n        /* \"#utility.yul\":3564:3567   */\n      dup2\n        /* \"#utility.yul\":3549:3567   */\n      swap1\n      pop\n        /* \"#utility.yul\":3539:3573   */\n      swap3\n      swap2\n      pop\n      pop\n      jump\t// out\n        /* \"#utility.yul\":3579:3748   */\n    tag_63:\n        /* \"#utility.yul\":3663:3674   */\n      0x00\n        /* \"#utility.yul\":3697:3703   */\n      dup3\n        /* \"#utility.yul\":3692:3695   */\n      dup3\n        /* \"#utility.yul\":3685:3704   */\n      mstore\n        /* \"#utility.yul\":3737:3741   */\n      0x20\n        /* \"#utility.yul\":3732:3735   */\n      dup3\n        /* \"#utility.yul\":3728:3742   */\n      add\n        /* \"#utility.yul\":3713:3742   */\n      swap1\n      pop\n        /* \"#utility.yul\":3675:3748   */\n      swap3\n      swap2\n      pop\n      pop\n      jump\t// out\n        /* \"#utility.yul\":3754:3858   */\n    tag_85:\n        /* \"#utility.yul\":3799:3806   */\n      0x00\n        /* \"#utility.yul\":3828:3852   */\n      tag_87\n        /* \"#utility.yul\":3846:3851   */\n      dup3\n        /* \"#utility.yul\":3828:3852   */\n      tag_88\n      jump\t// in\n    tag_87:\n        /* \"#utility.yul\":3817:3852   */\n      swap1\n      pop\n        /* \"#utility.yul\":3807:3858   */\n      swap2\n      swap1\n      pop\n      jump\t// out\n        /* \"#utility.yul\":3864:3954   */\n    tag_49:\n        /* \"#utility.yul\":3898:3905   */\n      0x00\n        /* \"#utility.yul\":3941:3946   */\n      dup2\n        /* \"#utility.yul\":3934:3947   */\n      iszero\n        /* \"#utility.yul\":3927:3948   */\n      iszero\n        /* \"#utility.yul\":3916:3948   */\n      swap1\n      pop\n        /* \"#utility.yul\":3906:3954   */\n      swap2\n      swap1\n      pop\n      jump\t// out\n        /* \"#utility.yul\":3960:4086   */\n    tag_88:\n        /* \"#utility.yul\":3997:4004   */\n      0x00\n        /* \"#utility.yul\":4037:4079   */\n      0xffffffffffffffffffffffffffffffffffffffff\n        /* \"#utility.yul\":4030:4035   */\n      dup3\n        /* \"#utility.yul\":4026:4080   */\n      and\n        /* \"#utility.yul\":4015:4080   */\n      swap1\n      pop\n        /* \"#utility.yul\":4005:4086   */\n      swap2\n      swap1\n      pop\n      jump\t// out\n        /* \"#utility.yul\":4092:4399   */\n    tag_57:\n        /* \"#utility.yul\":4160:4161   */\n      0x00\n        /* \"#utility.yul\":4170:4283   */\n    tag_92:\n        /* \"#utility.yul\":4184:4190   */\n      dup4\n        /* \"#utility.yul\":4181:4182   */\n      dup2\n        /* \"#utility.yul\":4178:4191   */\n      lt\n        /* \"#utility.yul\":4170:4283   */\n      iszero\n      tag_94\n      jumpi\n        /* \"#utility.yul\":4269:4270   */\n      dup1\n        /* \"#utility.yul\":4264:4267   */\n      dup3\n        /* \"#utility.yul\":4260:4271   */\n      add\n        /* \"#utility.yul\":4254:4272   */\n      mload\n        /* \"#utility.yul\":4250:4251   */\n      dup2\n        /* \"#utility.yul\":4245:4248   */\n      dup5\n        /* \"#utility.yul\":4241:4252   */\n      add\n        /* \"#utility.yul\":4234:4273   */\n      mstore\n        /* \"#utility.yul\":4206:4208   */\n      0x20\n        /* \"#utility.yul\":4203:4204   */\n      dup2\n        /* \"#utility.yul\":4199:4209   */\n      add\n        /* \"#utility.yul\":4194:4209   */\n      swap1\n      pop\n        /* \"#utility.yul\":4170:4283   */\n      jump(tag_92)\n    tag_94:\n        /* \"#utility.yul\":4301:4307   */\n      dup4\n        /* \"#utility.yul\":4298:4299   */\n      dup2\n        /* \"#utility.yul\":4295:4308   */\n      gt\n        /* \"#utility.yul\":4292:4294   */\n      iszero\n      tag_95\n      jumpi\n        /* \"#utility.yul\":4381:4382   */\n      0x00\n        /* \"#utility.yul\":4372:4378   */\n      dup5\n        /* \"#utility.yul\":4367:4370   */\n      dup5\n        /* \"#utility.yul\":4363:4379   */\n      add\n        /* \"#utility.yul\":4356:4383   */\n      mstore\n        /* \"#utility.yul\":4292:4294   */\n    tag_95:\n        /* \"#utility.yul\":4141:4399   */\n      pop\n      pop\n      pop\n      pop\n      jump\t// out\n        /* \"#utility.yul\":4405:4507   */\n    tag_59:\n        /* \"#utility.yul\":4446:4452   */\n      0x00\n        /* \"#utility.yul\":4497:4499   */\n      0x1f\n        /* \"#utility.yul\":4493:4500   */\n      not\n        /* \"#utility.yul\":4488:4490   */\n      0x1f\n        /* \"#utility.yul\":4481:4486   */\n      dup4\n        /* \"#utility.yul\":4477:4491   */\n      add\n        /* \"#utility.yul\":4473:4501   */\n      and\n        /* \"#utility.yul\":4463:4501   */\n      swap1\n      pop\n        /* \"#utility.yul\":4453:4507   */\n      swap2\n      swap1\n      pop\n      jump\t// out\n        /* \"#utility.yul\":4513:4682   */\n    tag_65:\n        /* \"#utility.yul\":4653:4674   */\n      0x456c20656e76696f2068612066616c6c61646f00000000000000000000000000\n        /* \"#utility.yul\":4649:4650   */\n      0x00\n        /* \"#utility.yul\":4641:4647   */\n      dup3\n        /* \"#utility.yul\":4637:4651   */\n      add\n        /* \"#utility.yul\":4630:4675   */\n      mstore\n        /* \"#utility.yul\":4619:4682   */\n      pop\n      jump\t// out\n        /* \"#utility.yul\":4688:4802   */\n    tag_71:\n        /* \"#utility.yul\":4794:4802   */\n      pop\n      jump\t// out\n        /* \"#utility.yul\":4808:4946   */\n    tag_42:\n        /* \"#utility.yul\":4889:4921   */\n      tag_100\n        /* \"#utility.yul\":4915:4920   */\n      dup2\n        /* \"#utility.yul\":4889:4921   */\n      tag_85\n      jump\t// in\n    tag_100:\n        /* \"#utility.yul\":4882:4887   */\n      dup2\n        /* \"#utility.yul\":4879:4922   */\n      eq\n        /* \"#utility.yul\":4869:4871   */\n      tag_101\n      jumpi\n        /* \"#utility.yul\":4936:4937   */\n      0x00\n        /* \"#utility.yul\":4933:4934   */\n      dup1\n        /* \"#utility.yul\":4926:4938   */\n      revert\n        /* \"#utility.yul\":4869:4871   */\n    tag_101:\n        /* \"#utility.yul\":4859:4946   */\n      pop\n      jump\t// out\n\n    auxdata: 0xa2646970667358221220da294dd2cf7113d29b174d490acc2d1ea9500da5bc70613e189fd315ab96999d64736f6c63430008040033\n}\n",
				"bytecode": {
					"linkReferences": {},
					"object": "6080604052610527806100136000396000f3fe6080604052600436106100385760003560e01c8063636e082b1461004457806374be480614610060578063830c29ae1461007c5761003f565b3661003f57005b600080fd5b61005e600480360381019061005991906102bd565b610098565b005b61007a600480360381019061007591906102bd565b6100ea565b005b610096600480360381019061009191906102bd565b6101ad565b005b8073ffffffffffffffffffffffffffffffffffffffff166108fc670de0b6b3a76400009081150290604051600060405180830381858888f193505050501580156100e6573d6000803e3d6000fd5b5050565b60008173ffffffffffffffffffffffffffffffffffffffff166108fc670de0b6b3a76400009081150290604051600060405180830381858888f1935050505090507f0c46a72a145bed1fc3c2d4b0e023bd11ddb1e3204a898f4119357ecde6d5fe998160405161015a9190610389565b60405180910390a160011515811515146101a9576040517f08c379a00000000000000000000000000000000000000000000000000000000081526004016101a0906103d4565b60405180910390fd5b5050565b6000808273ffffffffffffffffffffffffffffffffffffffff16670de0b6b3a76400006040516101dc90610374565b60006040518083038185875af1925050503d8060008114610219576040519150601f19603f3d011682016040523d82523d6000602084013e61021e565b606091505b50915091507f265b43034d55cb12c6ef2185c7789690588a255cd2822a7b2776748ead4b320382826040516102549291906103a4565b60405180910390a160011515821515146102a3576040517f08c379a000000000000000000000000000000000000000000000000000000000815260040161029a906103d4565b60405180910390fd5b505050565b6000813590506102b7816104da565b92915050565b6000602082840312156102cf57600080fd5b60006102dd848285016102a8565b91505092915050565b6102ef8161043e565b82525050565b6000610300826103f4565b61030a81856103ff565b935061031a81856020860161046a565b6103238161049d565b840191505092915050565b600061033b60138361041b565b9150610346826104ae565b602082019050919050565b600061035e600083610410565b9150610369826104d7565b600082019050919050565b600061037f82610351565b9150819050919050565b600060208201905061039e60008301846102e6565b92915050565b60006040820190506103b960008301856102e6565b81810360208301526103cb81846102f5565b90509392505050565b600060208201905081810360008301526103ed8161032e565b9050919050565b600081519050919050565b600082825260208201905092915050565b600081905092915050565b600082825260208201905092915050565b60006104378261044a565b9050919050565b60008115159050919050565b600073ffffffffffffffffffffffffffffffffffffffff82169050919050565b60005b8381101561048857808201518184015260208101905061046d565b83811115610497576000848401525b50505050565b6000601f19601f8301169050919050565b7f456c20656e76696f2068612066616c6c61646f00000000000000000000000000600082015250565b50565b6104e38161042c565b81146104ee57600080fd5b5056fea2646970667358221220da294dd2cf7113d29b174d490acc2d1ea9500da5bc70613e189fd315ab96999d64736f6c63430008040033",
					"opcodes": "PUSH1 0x80 PUSH1 0x40 MSTORE PUSH2 0x527 DUP1 PUSH2 0x13 PUSH1 0x0 CODECOPY PUSH1 0x0 RETURN INVALID PUSH1 0x80 PUSH1 0x40 MSTORE PUSH1 0x4 CALLDATASIZE LT PUSH2 0x38 JUMPI PUSH1 0x0 CALLDATALOAD PUSH1 0xE0 SHR DUP1 PUSH4 0x636E082B EQ PUSH2 0x44 JUMPI DUP1 PUSH4 0x74BE4806 EQ PUSH2 0x60 JUMPI DUP1 PUSH4 0x830C29AE EQ PUSH2 0x7C JUMPI PUSH2 0x3F JUMP JUMPDEST CALLDATASIZE PUSH2 0x3F JUMPI STOP JUMPDEST PUSH1 0x0 DUP1 REVERT JUMPDEST PUSH2 0x5E PUSH1 0x4 DUP1 CALLDATASIZE SUB DUP2 ADD SWAP1 PUSH2 0x59 SWAP2 SWAP1 PUSH2 0x2BD JUMP JUMPDEST PUSH2 0x98 JUMP JUMPDEST STOP JUMPDEST PUSH2 0x7A PUSH1 0x4 DUP1 CALLDATASIZE SUB DUP2 ADD SWAP1 PUSH2 0x75 SWAP2 SWAP1 PUSH2 0x2BD JUMP JUMPDEST PUSH2 0xEA JUMP JUMPDEST STOP JUMPDEST PUSH2 0x96 PUSH1 0x4 DUP1 CALLDATASIZE SUB DUP2 ADD SWAP1 PUSH2 0x91 SWAP2 SWAP1 PUSH2 0x2BD JUMP JUMPDEST PUSH2 0x1AD JUMP JUMPDEST STOP JUMPDEST DUP1 PUSH20 0xFFFFFFFFFFFFFFFFFFFFFFFFFFFFFFFFFFFFFFFF AND PUSH2 0x8FC PUSH8 0xDE0B6B3A7640000 SWAP1 DUP2 ISZERO MUL SWAP1 PUSH1 0x40 MLOAD PUSH1 0x0 PUSH1 0x40 MLOAD DUP1 DUP4 SUB DUP2 DUP6 DUP9 DUP9 CALL SWAP4 POP POP POP POP ISZERO DUP1 ISZERO PUSH2 0xE6 JUMPI RETURNDATASIZE PUSH1 0x0 DUP1 RETURNDATACOPY RETURNDATASIZE PUSH1 0x0 REVERT JUMPDEST POP POP JUMP JUMPDEST PUSH1 0x0 DUP2 PUSH20 0xFFFFFFFFFFFFFFFFFFFFFFFFFFFFFFFFFFFFFFFF AND PUSH2 0x8FC PUSH8 0xDE0B6B3A7640000 SWAP1 DUP2 ISZERO MUL SWAP1 PUSH1 0x40 MLOAD PUSH1 0x0 PUSH1 0x40 MLOAD DUP1 DUP4 SUB DUP2 DUP6 DUP9 DUP9 CALL SWAP4 POP POP POP POP SWAP1 POP PUSH32 0xC46A72A145BED1FC3C2D4B0E023BD11DDB1E3204A898F4119357ECDE6D5FE99 DUP2 PUSH1 0x40 MLOAD PUSH2 0x15A SWAP2 SWAP1 PUSH2 0x389 JUMP JUMPDEST PUSH1 0x40 MLOAD DUP1 SWAP2 SUB SWAP1 LOG1 PUSH1 0x1 ISZERO ISZERO DUP2 ISZERO ISZERO EQ PUSH2 0x1A9 JUMPI PUSH1 0x40 MLOAD PUSH32 0x8C379A000000000000000000000000000000000000000000000000000000000 DUP2 MSTORE PUSH1 0x4 ADD PUSH2 0x1A0 SWAP1 PUSH2 0x3D4 JUMP JUMPDEST PUSH1 0x40 MLOAD DUP1 SWAP2 SUB SWAP1 REVERT JUMPDEST POP POP JUMP JUMPDEST PUSH1 0x0 DUP1 DUP3 PUSH20 0xFFFFFFFFFFFFFFFFFFFFFFFFFFFFFFFFFFFFFFFF AND PUSH8 0xDE0B6B3A7640000 PUSH1 0x40 MLOAD PUSH2 0x1DC SWAP1 PUSH2 0x374 JUMP JUMPDEST PUSH1 0x0 PUSH1 0x40 MLOAD DUP1 DUP4 SUB DUP2 DUP6 DUP8 GAS CALL SWAP3 POP POP POP RETURNDATASIZE DUP1 PUSH1 0x0 DUP2 EQ PUSH2 0x219 JUMPI PUSH1 0x40 MLOAD SWAP2 POP PUSH1 0x1F NOT PUSH1 0x3F RETURNDATASIZE ADD AND DUP3 ADD PUSH1 0x40 MSTORE RETURNDATASIZE DUP3 MSTORE RETURNDATASIZE PUSH1 0x0 PUSH1 0x20 DUP5 ADD RETURNDATACOPY PUSH2 0x21E JUMP JUMPDEST PUSH1 0x60 SWAP2 POP JUMPDEST POP SWAP2 POP SWAP2 POP PUSH32 0x265B43034D55CB12C6EF2185C7789690588A255CD2822A7B2776748EAD4B3203 DUP3 DUP3 PUSH1 0x40 MLOAD PUSH2 0x254 SWAP3 SWAP2 SWAP1 PUSH2 0x3A4 JUMP JUMPDEST PUSH1 0x40 MLOAD DUP1 SWAP2 SUB SWAP1 LOG1 PUSH1 0x1 ISZERO ISZERO DUP3 ISZERO ISZERO EQ PUSH2 0x2A3 JUMPI PUSH1 0x40 MLOAD PUSH32 0x8C379A000000000000000000000000000000000000000000000000000000000 DUP2 MSTORE PUSH1 0x4 ADD PUSH2 0x29A SWAP1 PUSH2 0x3D4 JUMP JUMPDEST PUSH1 0x40 MLOAD DUP1 SWAP2 SUB SWAP1 REVERT JUMPDEST POP POP POP JUMP JUMPDEST PUSH1 0x0 DUP2 CALLDATALOAD SWAP1 POP PUSH2 0x2B7 DUP2 PUSH2 0x4DA JUMP JUMPDEST SWAP3 SWAP2 POP POP JUMP JUMPDEST PUSH1 0x0 PUSH1 0x20 DUP3 DUP5 SUB SLT ISZERO PUSH2 0x2CF JUMPI PUSH1 0x0 DUP1 REVERT JUMPDEST PUSH1 0x0 PUSH2 0x2DD DUP5 DUP3 DUP6 ADD PUSH2 0x2A8 JUMP JUMPDEST SWAP2 POP POP SWAP3 SWAP2 POP POP JUMP JUMPDEST PUSH2 0x2EF DUP2 PUSH2 0x43E JUMP JUMPDEST DUP3 MSTORE POP POP JUMP JUMPDEST PUSH1 0x0 PUSH2 0x300 DUP3 PUSH2 0x3F4 JUMP JUMPDEST PUSH2 0x30A DUP2 DUP6 PUSH2 0x3FF JUMP JUMPDEST SWAP4 POP PUSH2 0x31A DUP2 DUP6 PUSH1 0x20 DUP7 ADD PUSH2 0x46A JUMP JUMPDEST PUSH2 0x323 DUP2 PUSH2 0x49D JUMP JUMPDEST DUP5 ADD SWAP2 POP POP SWAP3 SWAP2 POP POP JUMP JUMPDEST PUSH1 0x0 PUSH2 0x33B PUSH1 0x13 DUP4 PUSH2 0x41B JUMP JUMPDEST SWAP2 POP PUSH2 0x346 DUP3 PUSH2 0x4AE JUMP JUMPDEST PUSH1 0x20 DUP3 ADD SWAP1 POP SWAP2 SWAP1 POP JUMP JUMPDEST PUSH1 0x0 PUSH2 0x35E PUSH1 0x0 DUP4 PUSH2 0x410 JUMP JUMPDEST SWAP2 POP PUSH2 0x369 DUP3 PUSH2 0x4D7 JUMP JUMPDEST PUSH1 0x0 DUP3 ADD SWAP1 POP SWAP2 SWAP1 POP JUMP JUMPDEST PUSH1 0x0 PUSH2 0x37F DUP3 PUSH2 0x351 JUMP JUMPDEST SWAP2 POP DUP2 SWAP1 POP SWAP2 SWAP1 POP JUMP JUMPDEST PUSH1 0x0 PUSH1 0x20 DUP3 ADD SWAP1 POP PUSH2 0x39E PUSH1 0x0 DUP4 ADD DUP5 PUSH2 0x2E6 JUMP JUMPDEST SWAP3 SWAP2 POP POP JUMP JUMPDEST PUSH1 0x0 PUSH1 0x40 DUP3 ADD SWAP1 POP PUSH2 0x3B9 PUSH1 0x0 DUP4 ADD DUP6 PUSH2 0x2E6 JUMP JUMPDEST DUP2 DUP2 SUB PUSH1 0x20 DUP4 ADD MSTORE PUSH2 0x3CB DUP2 DUP5 PUSH2 0x2F5 JUMP JUMPDEST SWAP1 POP SWAP4 SWAP3 POP POP POP JUMP JUMPDEST PUSH1 0x0 PUSH1 0x20 DUP3 ADD SWAP1 POP DUP2 DUP2 SUB PUSH1 0x0 DUP4 ADD MSTORE PUSH2 0x3ED DUP2 PUSH2 0x32E JUMP JUMPDEST SWAP1 POP SWAP2 SWAP1 POP JUMP JUMPDEST PUSH1 0x0 DUP2 MLOAD SWAP1 POP SWAP2 SWAP1 POP JUMP JUMPDEST PUSH1 0x0 DUP3 DUP3 MSTORE PUSH1 0x20 DUP3 ADD SWAP1 POP SWAP3 SWAP2 POP POP JUMP JUMPDEST PUSH1 0x0 DUP2 SWAP1 POP SWAP3 SWAP2 POP POP JUMP JUMPDEST PUSH1 0x0 DUP3 DUP3 MSTORE PUSH1 0x20 DUP3 ADD SWAP1 POP SWAP3 SWAP2 POP POP JUMP JUMPDEST PUSH1 0x0 PUSH2 0x437 DUP3 PUSH2 0x44A JUMP JUMPDEST SWAP1 POP SWAP2 SWAP1 POP JUMP JUMPDEST PUSH1 0x0 DUP2 ISZERO ISZERO SWAP1 POP SWAP2 SWAP1 POP JUMP JUMPDEST PUSH1 0x0 PUSH20 0xFFFFFFFFFFFFFFFFFFFFFFFFFFFFFFFFFFFFFFFF DUP3 AND SWAP1 POP SWAP2 SWAP1 POP JUMP JUMPDEST PUSH1 0x0 JUMPDEST DUP4 DUP2 LT ISZERO PUSH2 0x488 JUMPI DUP1 DUP3 ADD MLOAD DUP2 DUP5 ADD MSTORE PUSH1 0x20 DUP2 ADD SWAP1 POP PUSH2 0x46D JUMP JUMPDEST DUP4 DUP2 GT ISZERO PUSH2 0x497 JUMPI PUSH1 0x0 DUP5 DUP5 ADD MSTORE JUMPDEST POP POP POP POP JUMP JUMPDEST PUSH1 0x0 PUSH1 0x1F NOT PUSH1 0x1F DUP4 ADD AND SWAP1 POP SWAP2 SWAP1 POP JUMP JUMPDEST PUSH32 0x456C20656E76696F2068612066616C6C61646F00000000000000000000000000 PUSH1 0x0 DUP3 ADD MSTORE POP JUMP JUMPDEST POP JUMP JUMPDEST PUSH2 0x4E3 DUP2 PUSH2 0x42C JUMP JUMPDEST DUP2 EQ PUSH2 0x4EE JUMPI PUSH1 0x0 DUP1 REVERT JUMPDEST POP JUMP INVALID LOG2 PUSH5 0x6970667358 0x22 SLT KECCAK256 0xDA 0x29 0x4D 0xD2 0xCF PUSH18 0x13D29B174D490ACC2D1EA9500DA5BC70613E XOR SWAP16 0xD3 ISZERO 0xAB SWAP7 SWAP10 SWAP14 PUSH5 0x736F6C6343 STOP ADDMOD DIV STOP CALLER "
				},
				"gasEstimates": {
					"creation": {
						"codeDepositCost": "263800",
						"executionCost": "282",
						"totalCost": "264082"
					},
					"external": {
						"sendViaCall(address)": "infinite",
						"sendViaSend(address)": "infinite",
						"sendViaTransfer(address)": "infinite"
					}
				},
				"methodIdentifiers": {
					"sendViaCall(address)": "830c29ae",
					"sendViaSend(address)": "74be4806",
					"sendViaTransfer(address)": "636e082b"
				}
			},
			"storageLayout": {
				"storage": [],
				"types": null
			},
			"userdoc": {
				"kind": "user",
				"methods": {},
				"version": 1
			}
		}
	}
}